:100000000C9460010C9488010C9488010C94880174
:100010000C9488010C9488010C9488010C9488013C
:100020000C9488010C9488010C9488010C9488012C
:100030000C9488010C9488010C9488010C9488011C
:100040000C94801C0C9488010C947D1E0C94CF1E83
:100050000C9488010C9488010C9488010C948801FC
:100060000C9488010C948801005EBCE2613FDD8342
:10007000C29C7E20A3FD1F419DC3217FFCA2401E88
:100080005F01E3BD3E6082DC237D9FC1421CFEA078
:10009000E1BF5D0380DE3C62BEE0025CDF81633D68
:1000A0007C22C09E1D43A1FF4618FAA427799BC558
:1000B00084DA3866E5BB5907DB856739BAE4065848
:1000C0001947A5FB7826C49A653BD987045AB8E638
:1000D000A7F91B45C6987A24F8A6441A99C7257B28
:1000E0003A6486D85B05E7B98CD2306EEDB3510F18
:1000F0004E10F2AC2F7193CD114FADF3702ECC9208
:10010000D38D6F31B2EC0E50AFF1134DCE90722CF7
:100110006D33D18F0C52B0EE326C8ED0530DEFB1E7
:10012000F0AE4C1291CF2D73CA947628ABF51749D7
:100130000856B4EA6937D58B5709EBB536688AD4C7
:1001400095CB2977F4AA4816E9B7550B88D6346AB7
:100150002B7597C94A14F6A8742AC896154BA9F7A7
:10016000B6E80A54D7896B35000000002400270048
:100170002A0000000000250028002B0000000000DD
:1001800023002600290004040404040404040202D9
:100190000202020203030303030301020408102006
:1001A0004080010204081020010204081020000011
:1001B0000007000201000003040600000000000028
:1001C000000000407A10F35A00A0724E1809001087
:1001D000A5D4E80000E87648170000E40B540200BC
:1001E00000CA9A3B000000E1F505000080969800E7
:1001F000000040420F000000A08601000000102710
:1002000000000000E803000000006400000000009F
:100210000A00000000000100000000002C76D888D1
:10022000DC674F0823DFC1DFAE59E1B1B796E5E3E4
:10023000E453C63AE651997696E8E6C28426EB89FD
:100240008C9B62ED407C6FFCEFBC9C9F40F2BAA59A
:100250006FA5F490055A2AF75C936B6CF9676DC132
:100260001BFCE0E40D47FEF520E6B500D0ED902E36
:100270000300943577050080841E080000204E0A94
:10028000000000C80C333333330F986E12831141D2
:10029000EF8D2114893BE65516CFFEE6DB18D1849D
:1002A0004B381BF77C1D901DA4BBE42420328472C4
:1002B0005E228100C9F124ECA1E53D273C043E20EB
:1002C00011241FBECFEFD8E0DEBFCDBF15E0A0E008
:1002D000B1E0E0E8F0E502C005900D92AC3EB10758
:1002E000D9F717E0ACEEB5E001C01D92AF3DB10704
:1002F000E1F712E0C0ECD2E004C02297FE010E94B8
:100300000328CC3BD107C9F70E9495200C943E28C6
:100310000C940000EF92FF920F931F93F22FF02E98
:1003200047FD02C0E4E001C0E4E1242F332727FDAC
:10033000309537FF03C0309521953F4F4F2D512FFA
:100340000F2FEE2E0E94F2018F2D912F1F910F91F2
:10035000FF90EF900895FB01DC0102C001900D9227
:1003600041505040D8F70895FB01DC0101900D92F7
:100370000020E1F70895FB019F01E8944230C4F0AA
:100380004532B4F44A3029F497FB1EF490958195D8
:100390009F4F642F77270E94ED27805D8A330CF0F2
:1003A000895D8193CB010097A1F716F45DE251932B
:1003B0001082C9010C942C04FB019F01423074F09F
:1003C000453264F4642F77270E94ED27805D8A33DD
:1003D0000CF0895D8193CB010097A1F71082C901D0
:1003E0000C942C04A9E0B0E0E8EFF1E00C940B28A9
:1003F0006A01122FA02EBE2C2BE3201718F42CE339
:10040000922E02C0902E9394AE014F5F5F4F27E073
:10041000092D0E945403BC018981E82EFF24C701E5
:1004200089709070019711F4ADE209C0B1FE02C06D
:10043000ABE205C0B0FC02C0A0E001C0A0E2E3FE58
:100440003BC0AA2311F423E001C024E0211710F0DF
:1004500020E002C0121B212FEB2CB4FE02C0322F71
:100460000AC0F601322F80E202C08193315033235B
:10047000E1F7C20ED11CAA2319F0F601A1936F0176
:10048000F6013196E2FE05C09EE4D6019C9381E41C
:1004900004C09EE6D6019C9381E611968C939183CD
:1004A0003296DF01832F90E202C09D938150882312
:1004B000E1F7E30FF11D40C0E2FE42C0AA2311F4B0
:1004C00023E001C024E0211710F020E002C0121B3D
:1004D000212FEB2CB4FE02C0922F0AC0F601922FFE
:1004E00080E202C0819391509923E1F7C20ED11CA2
:1004F000AA2319F0F601A1936F01F6013196E2FEED
:1005000008C089E4D6018C938EE411968C9386E41E
:1005100007C089E6D6018C938EE611968C9386E609
:1005200081833296DF01892F20E202C02D93815012
:100530008823E1F7E90FF11D10822EEF3FEFAFC0E6
:10054000161617061CF041E050E003C0AB014F5FE8
:100550005F4FAA2019F480E090E003C08A2D90E05C
:10056000019620E030E0AA2311F021E030E0240FD2
:10057000351F280F391F812F90E02817390714F0F5
:1005800020E002C0121B212F4B2D50E0CA018071C8
:100590009070B4FC0DC0B3FC0BC0F601322F40E2EA
:1005A00002C0419331503323E1F7C20ED11C01C088
:1005B000322FAA2319F0F601A1936F01892B11F0B4
:1005C000132F0AC0F601132F80E302C0819311504C
:1005D0001123E1F7C30ED11C092D060FBA8090E15B
:1005E000892E912C8E209F20E4FE04C0F1E3BF16DB
:1005F00009F40150101614F001E003C0093008F0AE
:1006000008E09B0177FF02C020E030E0CB010196BB
:10061000821B930BFE013196E80FF91F8EE2F82E34
:100620003B01601A71088A2D90E044275527481B2A
:10063000590B8FEF2F3F380719F4D601FD926D014A
:10064000621773072CF06216730614F4808101C0E0
:1006500080E32150304031962417350724F0D6012D
:100660008D936D01E6CF2617370749F4B5E3BB1527
:1006700028F0BB1621F48114910409F481E3F601FA
:100680008193D601812F90E202C09C9381501196F4
:100690008823D9F7E10FF11D108220E030E0C90175
:1006A0002996EEE00C942728283008F027E033271D
:1006B000DA01990F311D87FD916000966105710582
:1006C00039F432602E5F3D9330E32A95E1F70895C7
:1006D0009F3F30F080387105610509F03C5F3C5F59
:1006E0003D93913008F08068911DDF93CF931F9365
:1006F0000F93FF92EF92192F987F9695E92F969579
:100700009695E90FFF27E45EFD4F99273327EE24E6
:10071000FF24A701E70105900894079428F4360FF9
:10072000E71EF81E491F511D660F771F881F991F6E
:100730000694A1F70590079428F4E70EF81E491FC8
:10074000561FC11D770F881F991F661F0694A1F7BA
:100750000590079428F4F80E491F561FC71FD11D96
:10076000880F991F661F771F0694A1F705900794BD
:1007700020F4490F561FC71FD81F990F661F771FF8
:10078000881F0694A9F784911095177041F0D695AB
:10079000C79557954795F794E7941A95C1F7E2ECFA
:1007A000F1E06894159015913591659195910590BA
:1007B0007FE27395E118F10A430B560BC90BD00980
:1007C000C0F7E10CF11E431F561FC91FD01D7EF458
:1007D000703311F48A95E6CFE894015030F0080F99
:1007E0000AF40027021708F4202F2395022F7A33EA
:1007F00028F079E37D932A95E9F710C07D932A9537
:1008000089F6069497956795379517951794E1188B
:10081000F10A430B560BC90BD00998F023957E9132
:1008200073957A3308F070E37C932013B8F77E91C8
:1008300070617D9330F0839571E37D9370E32A9529
:10084000E1F71124EF90FF900F911F91CF91DF916D
:10085000992787FD90950895DC01FC01672F719120
:100860007723E1F7329704C07C916D937083629196
:10087000AE17BF07C8F308956F927F928F929F9231
:10088000AF92BF92CF92DF92EF92FF920F931F939E
:1008900000D000D0BCEE6B2EB5E07B2E82E090E065
:1008A000EDB7FEB7928381838AE090E094838383DF
:1008B000C3016EE070E048E050E029E030E004E081
:1008C00010E0A5E0EA2EF12CF6E0CF2ED12CE7E0E7
:1008D000AE2EB12CB0E18B2E912C0E94680D0F90A2
:1008E0000F900F900F908AEC96E0B3014DE050E02E
:1008F0002CE030E00CE010E0ACE0EA2EF12CFCE063
:10090000CF2ED12CEBE0AE2EB12C0E9459141F91AA
:100910000F91FF90EF90DF90CF90BF90AF909F909E
:100920008F907F906F9008958AEC96E00E94C61297
:10093000089589EB97E040E855E260E070E00E949E
:100940000A1F8CE061E00E94961D8BE061E00E942E
:10095000961D8CE061E00E94D51D8BE061E00E9455
:10096000D51D08952F923F924F925F926F927F9282
:100970008F929F92AF92BF92CF92DF92EF92FF92AF
:100980000F931F93DF93CF93CDB7DEB7A7970FB623
:10099000F894DEBF0FBECDBF6B015A013EA32DA35D
:1009A000802E9E2C75ECE72EF12CE80EF91E8C01A2
:1009B00007531F4F882D8E5F8FA363E1262E312CA6
:1009C0002C0E3D1E5FE1452E512C4C0E5D1E49E163
:1009D000642E712C6C0E7D1E8BC0CA0CDB1CC701F3
:1009E0000E946515882329F0CA14DB0414F0CA1884
:1009F000DB08C801682D492D0E949416EAE0CE1646
:100A0000D104FCF4C801682D492D0E949416C80138
:100A100060E071E00E940822C8016FA1492D0E9488
:100A20009416CE010196B6014AE00E946923C801DE
:100A3000BE016F5F7F4F0E94D020CE0101960E94C1
:100A4000F523C6010A978A35910520F5C801682D5E
:100A5000492D0E949416CE010D9663E071E00E942C
:100A60000723CE010796B6014AE00E946923CE0112
:100A70000D96BE01695F7F4F0E94B722BC01C8017D
:100A80000E94D020CE0107960E94F523CE010D963C
:100A90000E94FB23F4E6CF16D1048CF0C801682D28
:100AA000492D0E949416C101B6014AE00E946923B3
:100AB000C801B1010E94D020C1010E94F523C201EA
:100AC00065E071E00E940723C301B6014AE00E947D
:100AD0006923C201B3010E94B722BC0189EB97E0F0
:100AE0000E940221C3010E94F523C2010E94FB2340
:100AF000C7010E945515882389F4C7010E945D151E
:100B0000882361F4C7010E944D15882339F4C70179
:100B10000E946D15882309F060CF61CFEDA1FEA181
:100B2000D182C082A7960FB6F894DEBF0FBECDBFAC
:100B3000CF91DF911F910F91FF90EF90DF90CF90B9
:100B4000BF90AF909F908F907F906F905F904F90ED
:100B50003F902F9008952F923F924F925F926F9205
:100B60007F928F929F92AF92BF92CF92DF92EF923D
:100B7000FF920F931F93DF93CF93CDB7DEB7A79765
:100B80000FB6F894DEBF0FBECDBF38014901FEA2FB
:100B9000EDA24C2C5A2CA5ECAA2EB12CA80EB91EF5
:100BA000F9ECCF2ED12CC80ED91ECA01DB017C0175
:100BB0008D01842D8E5F8FA3E9E12E2E312C2C0E1A
:100BC0003D1EC2C0C801B701A40193010E941826AE
:100BD0007B018C01C5010E946515882381F0C80145
:100BE000B701A40193010E943227882344F0C80171
:100BF000B701A40193010E9417267B018C01C60155
:100C0000642D452D0E949416C801B70120E030E004
:100C100040E251E40E947C26882304F5C601642D3D
:100C2000452D0E949416C60160E071E00E940822E2
:100C3000C6016FA1452D0E949416CE010196B80100
:100C4000A70122E00E943923C601BE016F5F7F4FDA
:100C50000E94D020CE0101960E94F523C801B70161
:100C600020E030E040E251E40E94322788237CF10A
:100C7000C801B70120E030E048EC52E40E947C2635
:100C800088232CF5C601642D452D0E949416CE01B3
:100C90000D9663E071E00E940723CE010796B8012C
:100CA000A70122E00E943923CE010D96BE01695FA3
:100CB0007F4F0E94B722BC01C6010E94D020CE0106
:100CC00007960E94F523CE010D960E94FB23C801D2
:100CD000B70120E030E048EC52E40E94322788233C
:100CE000B4F0C601642D452D0E949416CE014396A2
:100CF000B801A70122E00E943923C601BE016D5E42
:100D00007F4F0E94D020CE0143960E94F523CE0152
:100D10004F9661E171E00E940723C101B801A7016C
:100D200022E00E943923CE014F96B1010E94B722E2
:100D3000BC0189EB97E00E940221C1010E94F523CA
:100D4000CE014F960E94FB23C5010E9455158823B2
:100D500089F4C5010E945D15882361F4C5010E94D4
:100D60004D15882339F4C5010E946D15882309F0BB
:100D700029CF30CFEDA1FEA1E082F182028313835F
:100D8000A7960FB6F894DEBF0FBECDBFCF91DF910F
:100D90001F910F91FF90EF90DF90CF90BF90AF9099
:100DA0009F908F907F906F905F904F903F902F908B
:100DB0000895EF92FF920F931F938C01FC0116860A
:100DC0001586B9ECEB2EF12CE80EF91EC7010E9436
:100DD000C316C70160E040E00E949416C701F80105
:100DE00061850E94581601591F4FF8016191719158
:100DF0008F01C7010E940822C70160E041E00E9404
:100E00009416F80160817181C7010E9408221F9128
:100E10000F91FF90EF9008950F931F93CF93DF935F
:100E2000EC018D859E851816190694F501979E870D
:100E30008D878E0107531F4FC8010E94C316C8013A
:100E400060E040E00E949416C80169850E9458162F
:100E5000ED85FE85EE0FFF1FEC0FFD1FE159FF4FE3
:100E600060817181C8010E940822C80160E041E0F0
:100E70000E9494168D859E850196880F991FC80F34
:100E8000D91FC159DF4F68817981C8010E940822AA
:100E9000DF91CF911F910F9108950F931F93CF93DF
:100EA000DF93EC018D859E858330910594F5019645
:100EB0009E878D878E0107531F4FC8010E94C3165E
:100EC000C80160E040E00E949416ED85FE853197F0
:100ED000EE0FFF1FEC0FFD1FE159FF4F6081718185
:100EE000C8010E940822C80160E041E00E949416F7
:100EF000C80169850E9458168D859E85880F991FA7
:100F0000C80FD91FC159DF4F68817981C8010E947C
:100F10000822DF91CF911F910F9108958F929F9298
:100F2000AF92BF92CF92DF92EF92FF920F931F93F7
:100F3000CF93DF93EC016B014A01122F89ECE82E6D
:100F4000F12CEC0EFD1EC7010E94C316C70160E024
:100F500040E00E9494165601AA0CBB1C1123F9F024
:100F6000C70169850E94581685010C0D1D1D000FD3
:100F7000111F080D191DF801EE0FFF1FEC0FFD1FCB
:100F8000E358FF4F60817181C7010E940822C701A9
:100F900060E041E00E9494160F5F1F4F1DC0850165
:100FA0000C0D1D1D000F111F080D191DF8013197A3
:100FB000EE0FFF1FEC0FFD1FE358FF4F60817181A3
:100FC000C7010E940822C70160E041E00E94941618
:100FD000C70169850E945816000F111FC00FD11F4D
:100FE000C358DF4F68817981C7010E940822DF91D1
:100FF000CF911F910F91FF90EF90DF90CF90BF9016
:10100000AF909F908F90089565E070E041E050E0D0
:1010100021E00E948E07089564E070E041E050E016
:1010200021E00E948E07089563E070E041E050E007
:1010300021E00E948E07089562E070E041E050E0F8
:1010400021E00E948E07089561E070E041E050E0E9
:1010500021E00E948E0708952F923F924F925F9257
:101060006F927F928F929F92AF92BF92CF92DF92B8
:10107000EF92FF920F931F93DF93CF93CDB7DEB71D
:10108000C454D0400FB6F894DEBF0FBECDBF3C01B4
:10109000DC01A358BF4F40E050E020E030E0ED918C
:1010A000FC9111978081882311F02F5F3F4F4F5F94
:1010B0005F4F12964630510591F7C901019723966B
:1010C0009FAF8EAF2397C30160E070E041E050E036
:1010D00021E00E948E0795EC292E312C260C371C1E
:1010E00089EC882E912C860C971CF301EE5BFF4F48
:1010F0002196FFAFEEAF2197C3018E969EAF8DAFC5
:1011000001E0402E512C2596FFAFEEAF2597C2C1CE
:10111000C1010E946D15882371F092E049165104B7
:1011200054F0089441085108C30160E070E0A20146
:1011300021E00E948E07C1010E946515882389F075
:101140002396EEADFFAD23974E165F0654F4089438
:10115000411C511CC30160E070E0A20120E00E942C
:101160008E0789EB97E06FE171E00E94082289EB1E
:1011700097E0B2014AE050E00E94E921C1010E94DB
:101180004D15882309F47FC189EB97E06EE471E087
:101190000E9408222596EEADFFAD259760817181F2
:1011A000CE0107964AE00E94692389EB97E0BE01D1
:1011B000695F7F4F0E940221CE0107960E94F523AE
:1011C000C4010E94C316C40160E040E00E9494166E
:1011D000F201EE0FFF1FE60DF71DE358FF4F608190
:1011E0007181C4010E940822C40160E041E00E94B4
:1011F0009416C40165E771E00E940822C40163E00F
:1012000041E00E949416C40169E771E00E9408223F
:10121000C4016AE041E00E949416C40161E871E0F3
:101220000E940822C4016EE041E00E949416C401AD
:1012300066E871E00E9408222596EEADFFAD259785
:1012400060817181C30145E050E09E012F5F3F4FF7
:1012500000E010E0B1E0EB2EF12C0E94B204CE01D0
:10126000439668E871E00E94072369817A81CE0184
:101270000D964AE00E946923CE014396BE01635F4A
:101280007F4F0E94B722BC0189EB97E00E940221A8
:10129000CE010D960E94F523CE0143960E94FB23BA
:1012A00068EE73E080E090E00E94D61CF30146A552
:1012B00057A560A971A9C30100E010E020E03FE359
:1012C000A3E0EA2EF12CEC0EFD1EFAE0CF2ED12C7D
:1012D000E1E0AE2EB12C0E94AB059FE1E92EF12C8E
:1012E000EC0EFD1EC70161EA71E00E9407238E012A
:1012F000075E1F4F4B815C816D817E81C80122E0BA
:101300000E943923C701B8010E94B722BC0189EBB2
:1013100097E00E940221C8010E94F523C7010E94A4
:10132000FB2368EE73E080E090E00E94D61CC401CD
:101330000E94C316C40160E040E00E949416C401FC
:101340006CEB71E00E940822C40160E041E00E9461
:101350009416C4016DEC71E00E940822CE018B96B8
:101360006EE471E00E9407232596EEADFFAD259750
:1013700060817181CE0185964AE00E946923CE0189
:101380008B96BE016B5D7F4F0E94B722BC0189EB3B
:1013900097E00E940221CE0185960E94F523CE019E
:1013A0008B960E94FB23CE01C7966DED71E00E94E3
:1013B0000723F30146A557A560A971A9CE01C196DF
:1013C00022E00E943923CE01C796BE016F5C7F4F99
:1013D0000E94B722BC0189EB97E00E940221CE0156
:1013E000C1960E94F523CE01C7960E94FB23C1013E
:1013F0000E944D158823E1F187E297E064E270E0F6
:101400002196EEADFFAD219740810E94961587E2AF
:1014100097E065E270E02196EEADFFAD2197418146
:101420000E949615EDACFEAC60E170E08B010F5FA1
:101430001F4FF70141917F0187E297E00E949615C7
:10144000B8010431110591F7C4010E94C316C4010B
:1014500060E040E00E949416C40164E072E00E94E3
:10146000082268EE73E080E090E00E94D61C0BC07A
:10147000C1010E945515882331F4C1010E945D15F8
:10148000882309F454CFC30160E070E0A20121E099
:101490000E948E07C1010E945D15882309F438CE91
:1014A000CC5BDF4F0FB6F894DEBF0FBECDBFCF9140
:1014B000DF911F910F91FF90EF90DF90CF90BF9041
:1014C000AF909F908F907F906F905F904F903F90E4
:1014D0002F900895AF92BF92CF92DF92EF92FF923A
:1014E0000F931F93CF93DF938C017B0159ECC52E93
:1014F000D12CC80ED91EC6010E94C316C60160E0D9
:1015000040E00E949416C601F80161850E945816B9
:10151000F701EE0FFF1FEE0DFF1DEE0FFF1FEE0F89
:10152000FF1FE00FF11FE358FF4F60817181C6017B
:101530000E940822C60160E041E00E949416C701A3
:101540000196FC01EE0FFF1FE80FF91FEE0FFF1FC2
:10155000EE0FFF1FE00FF11FE358FF4F6081718115
:10156000C6010E94082285ECA82EB12CA00EB11E47
:101570000FC1C5010E946D158823E1F11E141F04DF
:10158000CCF5E7012197C6010E94C316C60160E0B1
:1015900040E00E949416C601F80161850E94581629
:1015A000FE01EE0FFF1FEC0FFD1FEE0FFF1FEE0FF2
:1015B000FF1FE00FF11FE358FF4F60817181C601EB
:1015C0000E940822C60160E041E00E949416F701E3
:1015D000EE0FFF1FEE0DFF1DEE0FFF1FEE0FFF1FA3
:1015E000E00FF11FE358FF4F60817181C6010E9437
:1015F000082201C0E701C5010E9465158823F1F1A9
:10160000C530D105DCF57E010894E11CF11CC60152
:101610000E94C316C60160E040E00E949416FE01DD
:10162000EE0FFF1FEC0FFD1FEE0FFF1FEE0FFF1F52
:10163000E00FF11FE358FF4F60817181C6010E94E6
:101640000822C60160E041E00E949416C601F8013C
:1016500061850E945816F701EE0FFF1FEE0DFF1D6A
:10166000EE0FFF1FEE0FFF1FE00FF11FE358FF4FBC
:1016700060817181C6010E94082201C07E01C501FE
:101680000E944D15882389F0E114F10471F489EB6F
:1016900097E065E172E00E940B22C8010E942C08CD
:1016A000C80160E070E00E946A0AC5010E944D1501
:1016B000882391F0F1E0EF16F10471F489EB97E0E3
:1016C0006EE272E00E940B22C8010E942408C80149
:1016D00061E070E00E946A0AC5010E944D158823EE
:1016E00091F082E0E816F10471F489EB97E06AE486
:1016F00072E00E940B22C8010E941C08C80162E02F
:1017000070E00E946A0AC5010E944D15882391F07D
:10171000E3E0EE16F10471F489EB97E061E672E024
:101720000E940B22C8010E941408C80163E070E007
:101730000E946A0AC5010E944D15882391F0F4E0C9
:10174000EF16F10471F489EB97E068E772E00E940C
:101750000B22C8010E940C08C80164E070E00E94DE
:101760006A0AC5010E944D15882391F085E0E816AC
:10177000F10471F489EB97E061E972E00E940B22B9
:10178000C8010E940408C80165E070E00E946A0A6E
:10179000C5010E945D15882309F4EBCEDF91CF913E
:1017A0001F910F91FF90EF90DF90CF90BF90AF907F
:1017B00008952F923F924F925F926F927F928F92F5
:1017C0009F92AF92BF92CF92DF92EF92FF920F93D0
:1017D0001F93DF93CF93CDB7DEB7E9970FB6F89499
:1017E000DEBF0FBECDBF98AF8FAB3A014B011801E2
:1017F0002901A9AE87539F4F9EAB8DAB0E94C316A4
:10180000EBE2AE2EB12CAC0EBD1EC401B30143E021
:1018100021E085010E948A01BC014E010894811CCF
:10182000911CC4010E94EE22C201B10143E021E0FB
:101830000E948A01BC01CE0107960E94EE22C701D8
:10184000B60143E021E00E948A01BC01CE010D9661
:101850000E94EE2279E1E72EF12CEC0EFD1EC7016D
:101860006AEA72E00E9407238E010D5E1F4FC801D5
:10187000B4010E94E123C701B8010E94B722BC0154
:101880008DA99EA90E94D020C8010E94F523C701FE
:101890000E94FB238DA99EA96AE040E00E94941655
:1018A0008DA99EA96FEA72E00E94082289AD83FF8C
:1018B00007C08DA99EA965EB72E00E94082207C0AF
:1018C0008DA99EA9EFA9F8AD65810E9458168DA932
:1018D0009EA960E041E00E94941665E2E62EF12C9C
:1018E000EC0EFD1EC70167EB72E00E9407238E011C
:1018F000015E1F4FC801BE01695F7F4F0E94E12357
:10190000C701B8010E94B722BC018DA99EA90E94FF
:10191000D020C8010E94F523C7010E94FB238DA996
:101920009EA96AE041E00E9494168DA99EA96BEBE6
:1019300072E00E940822F9ADF2FF07C08DA99EA9AE
:1019400065EB72E00E94082207C08DA99EA9EFA94D
:10195000F8AD67810E945816CE010D960E94F523BE
:10196000CE0107960E94F523CE0101960E94F52331
:10197000E9960FB6F894DEBF0FBECDBFCF91DF91D1
:101980001F910F91FF90EF90DF90CF90BF90AF909D
:101990009F908F907F906F905F904F903F902F908F
:1019A0000895CF92DF92EF92FF920F931F93CF9300
:1019B000DF93EC01D62EC42E862F0E94291E8C01A7
:1019C0008C2D0E94291E7C01CB53DF4FCE010E943B
:1019D0006D15882341F060E00115110509F461E0FF
:1019E0008D2D0E94D51DCE010E946515882341F0E2
:1019F00060E0E114F10409F461E08C2D0E94D51D32
:101A0000012B19F000E010E002C008E010E0EF2820
:101A100019F0C0E0D0E002C0C4E0D0E064E670E0BD
:101A200080E090E00E94D61C9E01202B312BC90142
:101A3000DF91CF911F910F91FF90EF90DF90CF90AA
:101A40000895CF92DF92EF92FF920F931F937C0144
:101A50008B01F7E2CF2EF7E0DF2EC601B7010E941F
:101A60008F15F80180830894E11CF11CC601B701B1
:101A70000E948F15F801818382E090E01F910F9101
:101A8000FF90EF90DF90CF900895EF92FF920F9329
:101A90001F93CF93DF93AC01EB01A4E0EA2EF12C6E
:101AA000E60EF71E8A010F5F1F4F87E297E0BA012B
:101AB0000E948F158993A801CE15DF0599F784E060
:101AC00090E0DF91CF911F910F91FF90EF900895DB
:101AD0003F924F925F926F927F928F929F92AF92BE
:101AE000BF92CF92DF92EF92FF920F931F93DF93FB
:101AF000CF93CDB7DEB73C01F42ED22E3C88BD8803
:101B00001E898B539F4F42E350E00E947515B9EC3C
:101B10004B2E512C460C571CC2016F2D4D2D202FE2
:101B20000E2DEC2CCA2C0E948117F3018082918229
:101B30003282B382812F61E00E94961D812F61E085
:101B40000E94D51DF30116821582178644E0408B52
:101B50003EE0318B2FE1228B138A148A158A81E0B3
:101B600090E090878783168A178A108E218F328F94
:101B7000438F148E82E090E09287818720E1268F48
:101B800098E1978F8CE180A33EE131A382A393A3D8
:101B900024A383E090E09487838716A217A28CE0A9
:101BA00080A731A782A713A614A62EE230E0620E0A
:101BB000731E80E190E0B3010E94450D84E090E047
:101BC000680E791E84E190E0B3010E94450DE4E0C7
:101BD000F0E06E0E7F1E88E190E0B3010E94450D9B
:101BE00024E030E0620E731E8CE190E0B3010E94AD
:101BF000450D84E090E0680E791E80E290E0B3012C
:101C00000E94450DE4E0F0E06E0E7F1E84E290E05D
:101C1000B3010E94210D22E030E0620E731E88E2C3
:101C200090E0B3010E94210D82E090E0680E791EE1
:101C30008CE290E0B3010E94210DE2E0F0E06E0E34
:101C40007F1E80E390E0B3010E94210D22E030E08E
:101C5000620E731E84E390E0B3010E94210D87E2BF
:101C600097E066E370E00E948F15E2E0F0E06E0E10
:101C70007F1EF301808324EB3FEF620E731EB301DE
:101C8000635B7F4F88E390E00E94210DB301615BAD
:101C90007F4F8CE390E00E94450DB3016D5A7F4F5A
:101CA00080E490E00E94210DB3016B5A7F4F84E4E1
:101CB00090E00E94210DB301695A7F4F88E490E0C3
:101CC0000E94210DB301675A7F4F8CE490E00E947F
:101CD000210DB301655A7F4F80E590E00E94210DF0
:101CE000B301635A7F4F84E590E00E94210DB30158
:101CF000615A7F4F88E590E00E94210DB3016F5932
:101D00007F4F8CE590E00E94210DB3016D597F4F0C
:101D100080E690E00E94210DB3016B597F4F84E66D
:101D200090E00E94210DB30169597F4F88E690E051
:101D30000E94450DB30165597F4F8CE690E00E94EB
:101D4000450DF30116861586A301415F5F4FC20161
:101D500065810E946216A3014A5E5F4FC201F301D2
:101D600067810E946216A301425E5F4FC201F301C8
:101D700061850E946216C201F301638526E230E0AC
:101D8000620E731EA3010E946216C201682D432DCC
:101D900020E00E94CB16C2010E94C31689E490E0A5
:101DA000680E791E81EC92E0F3018193919380EDAE
:101DB00092E08193919388ED92E08193919384EEE8
:101DC00092E08193919382EF92E0819391938AEFD5
:101DD00092E08193919383E093E0819391938BE0E0
:101DE00093E08193919384E193E08193919384E2D2
:101DF00093E0819391938EE293E08193919388E3B2
:101E000093E08193919382E493E0819391938CE4A6
:101E100093E08193919388E593E0819391933F01BF
:101E20008DE693E09183808328E030E0620E731E9C
:101E300083E893E0F301819391938AE893E081939F
:101E400091933F0181EA93E091838083620E731E38
:101E500082EB93E0F3018193919389EB93E081937B
:101E600091938AEC93E0819391933F0180EE93E00C
:101E70009183808326E030E0620E731E86EF93E04C
:101E8000F301819391933F0180E094E091838083FB
:101E90002AE030E0620E731E84E194E0F301918346
:101EA0008083CF91DF911F910F91FF90EF90DF9092
:101EB000CF90BF90AF909F908F907F906F905F90EA
:101EC0004F903F9008957F928F929F92AF92BF92D2
:101ED000CF92DF92EF92FF920F931F93DF93CF93F6
:101EE000CDB7DEB762970FB6F894DEBF0FBECDBF99
:101EF000982E892E162F072F6DE174E00E94EE2296
:101F0000212F302FC9018C0177249DE0A92EB12CFF
:101F1000AC0EBD1E87E0C82ED12CCC0EDD1E7E017E
:101F20000894E11CF11CF80160816031D8F4C6010D
:101F30006EE174E00E940723C701F801608140E16F
:101F40000E949923C601B7010E94B722BC01892DC6
:101F5000982D0E948122C7010E94F523C6010E948C
:101F6000FB230CC0C50140E10E949923892D982DC7
:101F7000B5010E948122C5010E94F52373940F5F71
:101F80001F4FF8E07F1679F689EB97E0692D782DE1
:101F90000E940221892D982D62960FB6F894DEBF1B
:101FA0000FBECDBFCF91DF911F910F91FF90EF90AA
:101FB000DF90CF90BF90AF909F908F907F900895CB
:101FC0002F923F924F925F926F927F928F929F9249
:101FD000AF92BF92CF92DF92EF92FF920F931F9337
:101FE000DF93CF93CDB7DEB7C655D0400FB6F89488
:101FF000DEBF0FBECDBF7C01FEE06F2E712C680EE0
:10200000791EC3010E94C917282F30E063963FAFA5
:102010002EAF639789EB97E060E274E00E940B2299
:1020200089EB97E06AE674E00E94082289EB97E06A
:1020300063E874E00E94082289EB97E063966EAD36
:102040007FAD63974AE050E00E94D62189EB97E08C
:1020500063E974E00E940B228701055A1F4FF801C3
:102060008081918187539F4F0E94C316F801808120
:10207000918187539F4F62EA74E00E940822F80121
:102080008081918187539F4F60E041E00E949416C8
:10209000F8018081918187539F4F6BEA74E00E9421
:1020A000082260ED77E080E090E00E94D61C00E01E
:1020B00010E0E9E4AE2EB12CAC0EBD1E2E0108944A
:1020C000411C511C77E0872E912C8C0E9D1E6DE0DB
:1020D000C62ED12CCC0EDD1E4EC0C301B501402F43
:1020E0000E94CE19882309F444C089EB97E06CEB79
:1020F00074E00E94082289EB97E0B8014AE050E0C2
:102100000E94D62189EB97E065EC74E00E940822DA
:10211000C201B5010E94630FC2010E94F52389EB41
:1021200097E06DEC74E00E940822C301B5010E94A3
:1021300077198823F1F0C301B5010E941F19AB0183
:10214000BC01C40122E00E943923C601B4010E94EF
:10215000EB23C60167EE74E00E949B22BC0189EB71
:1021600097E00E940221C6010E94FB23C4010E9445
:10217000F5230F5F1F4F63962EAD3FAD6397021798
:1021800013070CF4AACF89EB97E06DE174E00E948D
:102190000B2289EB97E06AEE74E00E940B225BE56C
:1021A000A52EB12CAE0CBF1C49E4442E512C4C0E74
:1021B0005D1EC701C19665969FAF8EAF659738E0EB
:1021C000232E312C240C351C6396EEADFFAD6397A6
:1021D00031976796FFAFEEAF6797B4C1F501808185
:1021E000918187539F4F0E94C316F5018081918191
:1021F00087539F4F6EEF74E00E940822F5018081A3
:10220000918187539F4F60E041E00E949416F50151
:10221000E080F18029EC30E0E20EF31ECE01499619
:102220006BE075E00E9407238E010D5E1F4FC80111
:1022300063966EAD7FAD63974AE00E946923CE013D
:102240004996B8010E94B722BC01C7010E94D02064
:10225000C8010E94F523CE0149960E94FB236CEB36
:1022600072E080E090E00E94D61CF50180819181AF
:1022700087539F4F0E94C3166CEB72E080E090E0A2
:102280000E94D61CF501808191818B539F4F0E9443
:102290006515882309F456C1C301B20140E00E94CC
:1022A000CE19F2016596AEADBFAD659790818C9168
:1022B000981711F0992407C031961196E215F3058D
:1022C000A9F799249394CE014F96B2010E94630F0F
:1022D000F5018081918187539F4F0E94C316F501BC
:1022E000E080F18029EC30E0E20EF31E2BE2C22EFA
:1022F000D12CCC0EDD1EC60168E175E00E940723DB
:102300008E010B5D1F4FC80160E070E04AE00E9443
:102310006923C601B8010E94B722BC01C7010E940F
:10232000D020C8010E94F523C6010E94FB23F501BD
:1023300080819181992029F087539F4F60E275E059
:1023400004C087539F4F64E275E00E940822F501A4
:102350008081918187539F4F60E041E00E949416F5
:10236000F501808191818E01015E1F4F87539F4F40
:10237000B8010E94D0206CEB72E080E090E00E94F7
:10238000D61CEE24FF24882483946801CDC0F50177
:10239000808191818B539F4F0E946515882381F125
:1023A00067962EAD3FAD6797E216F3064CF508949D
:1023B000E11CF11CC301B2014E2D0E94CE19CE01C9
:1023C000C196B2010E94630FC601BE016F5C7F4FD0
:1023D0000E94CA23CE01C1960E94F523F2016596A0
:1023E000AEADBFAD659790818C91981711F099248F
:1023F00007C031961196E215F305A9F79924939435
:10240000F501808191818B539F4F0E946D15882328
:1024100061F1E114F10449F10894E108F108C30104
:10242000B2014E2D0E94CE19CE01C796B2010E9474
:10243000630FC601BE01695C7F4F0E94CA23CE01B3
:10244000C7960E94F523F2016596AEADBFAD6597C4
:1024500090818C91981711F0992407C031961196AC
:10246000E215F305A9F799249394F50180819181F0
:1024700087539F4F0E94C316F50180819181882068
:10248000A1F18C0107531F4FCE018D5B9F4F68E177
:1024900075E00E940723CE01CD96B7014AE00E9465
:1024A0006923CE018D5B9F4FBE01635C7F4F0E940D
:1024B000B722BC01C8010E94D020CE01CD960E9457
:1024C000F523CE018D5B9F4F0E94FB23F501808198
:1024D0009181992029F087539F4F60E275E009C0F0
:1024E00087539F4F64E275E004C087539F4F68E2B3
:1024F00075E00E940822F5018081918187539F4FEA
:1025000060E041E00E949416F5018081918187533B
:102510009F4FB6010E94D0206CEB72E080E090E00B
:102520000E94D61CF1E08F26F501808191818B53AA
:102530009F4F0E945515882309F429CFCE014F964D
:102540000E94F523F501808191818B539F4F0E945A
:102550005D15882309F442CECA5ADF4F0FB6F894AE
:10256000DEBF0FBECDBFCF91DF911F910F91FF90C6
:10257000EF90DF90CF90BF90AF909F908F907F9023
:102580006F905F904F903F902F9008952F923F92C1
:102590004F925F926F927F928F929F92AF92BF9273
:1025A000CF92DF92EF92FF920F931F93DF93CF931F
:1025B000CDB7DEB766970FB6F894DEBF0FBECDBFBE
:1025C0004C01ABE56A2E712C680E791ED3018D91FA
:1025D0009C9187539F4F0E94C316F3018081918184
:1025E00087539F4F69E375E00E940822D3018D91C4
:1025F0009C9187539F4F60E041E00E949416F30145
:102600008081918187539F4F68E475E00E94082282
:1026100064EC79E080E090E00E94D61CD3018D91BB
:102620009C910E94D906F4013E96F88BEF87C40175
:10263000C1969E878D87D401D996BC87AB87F4015C
:10264000EF5BFF4FFA87E9877E8A6D8AC4018F5A54
:102650009F4F9A8B898BD401A75ABF4FBC8BAB8BF2
:10266000ED89FE89808191818B539F4F0E946D156A
:10267000882331F0AD89BE898D919C910E940C0711
:10268000ED89FE89808191818B539F4F0E94651552
:10269000882331F0AD89BE898D919C910E944D07B0
:1026A000ED89FE89808191818B539F4F0E944D154A
:1026B000882309F47FC0AD89BE89ED91FC918585A1
:1026C0009685892B09F076C089EB97E066E575E081
:1026D0000E940B2280E090E0A0E0B0E08D839E831A
:1026E000AF83B88789839A83AB83BC831C012D0198
:1026F00051C08F8598896D857E850E9477198823C2
:1027000051F08F8598896D857E850E941F196D8394
:102710007E838F8398878F8598896B857C850E94BF
:102720007719882351F08F8598896B857C850E9465
:102730001F1969837A838B839C838F859889698528
:102740007A850E947719882341F08F859889698559
:102750007A850E941F191B012C01AD89BE890D913C
:102760001C91E989FA8960817181AB89BC894D919D
:102770005C91C8010E94D10C5C01C8014D815E8151
:102780006F81788509811A812B813C8172016101F9
:102790000E94D90BED89FE89808191818B539F4FD7
:1027A0000E945D15882309F4A4CFD3018D919C91DB
:1027B0000E94D906ED89FE89808191818B539F4FBC
:1027C0000E944D158823E1F0AD89BE89ED91FC9101
:1027D000858596850197A1F489EB97E06EE675E013
:1027E0000E940B22ED89FE898081918160E070E07A
:1027F0000E946A0AAD89BE898D919C910E94D9067A
:10280000ED89FE89808191818B539F4F0E944D15E8
:10281000882371F0AD89BE89ED91FC9185859685FF
:10282000029731F489EB97E063E875E00E940B2290
:10283000ED89FE89808191818B539F4F0E944D15B8
:10284000882309F40DCFAD89BE89ED91FC91858572
:102850009685039709F004CF89EB97E06FE975E05F
:102860000E940B22C4010E94E00FFACEEF92FF9269
:102870000F931F93CF93DF93AC017B01C0E0D0E0B7
:102880008A010F5F1F4F87E297E0BA010E948F1500
:10289000F70181937F012196A801C830D10581F706
:1028A00088E090E0DF91CF911F910F91FF90EF9022
:1028B00008952F923F924F925F926F927F928F92E4
:1028C0009F92AF92BF92CF92DF92EF92FF920F93BF
:1028D0001F93DF93CF93CDB7DEB728970FB6F89449
:1028E000DEBF0FBECDBF2C013B014901642F0E940A
:1028F0004A1C8EE0282E312C240C351CC101B2015B
:102900000E94BA1781E590E0480E591EF2018192AB
:10291000919201931193E192F192C192D192A1927D
:10292000B1922F017182608285EA9FEF480E591E95
:10293000DE011196E4ECF5E088E001900D92815003
:10294000E1F700E010E07E010894E11CF11CF701C2
:10295000E00FF11F87E297E0B80140810E949615D1
:102960000F5F1F4F0830110591F7E1E2F0E04E0EC6
:102970005F1E80E090E0B2010E94450D84E090E08F
:10298000480E591EB2010E94450DE4E0F0E04E0EE3
:102990005F1E88E090E0B2010E94450D84E090E067
:1029A000480E591E8CE090E0B2010E94450DE4E013
:1029B000F0E04E0E5F1E80E090E0B2010E943614FF
:1029C00088E090E0480E591EB2010E943614E8E0FB
:1029D000F0E04E0E5F1E80E190E0B2010E943614DE
:1029E000C1010E94FC1928960FB6F894DEBF0FBEF5
:1029F000CDBFCF91DF911F910F91FF90EF90DF90AE
:102A0000CF90BF90AF909F908F907F906F905F908E
:102A10004F903F902F9008950F931F93CF93DF9384
:102A20008C01FC0180810E94741DEC01F80162811F
:102A30007381882777FD8095982F0E94D61CF3E03C
:102A4000C93EDF071CF020E030E021C0C233D105D1
:102A50001CF423E030E01BC0C33CD1051CF424E08F
:102A600030E015C081E0CC37D8071CF425E030E019
:102A70000EC0E2E0CB32DE071CF422E030E007C0FB
:102A800020E030E0C651D34014F421E030E0C90129
:102A9000DF91CF911F910F9108950E940C1520E0B6
:102AA000039709F421E0822F08950E940C1520E07D
:102AB000029709F421E0822F08950E940C1520E06E
:102AC000019709F421E0822F08950E940C1520E05F
:102AD000059709F421E0822F08950E940C1520E04B
:102AE000049709F421E0822F0895CF92DF92EF92AC
:102AF000FF920F931F938C01D62EC72E7A01862F3B
:102B000060E00E94961DF801D082C182F382E282C9
:102B10001F910F91FF90EF90DF90CF900895F9995A
:102B2000FECF72BD61BDF89A80B50895F999FECFC8
:102B30001FBA72BD61BD40BD0FB6F894FA9AF99AFA
:102B40000FBE08950F931F938C01FC01868160E0F6
:102B50000E94D51D81E090E00E942F1DF801868122
:102B600061E00E94D51D81E090E00E942F1DF801D8
:102B7000868160E00E94D51D84E690E00E942F1DB2
:102B80001F910F910895CF92DF92EF92FF920F93D2
:102B90001F93CF93DF93D82EC92E282F392FC90129
:102BA0008C01C0E0D0E0E62EFF24F801878161E0CF
:102BB0000E94961DB7010C2E02C0759567950A9468
:102BC000E2F76170F80187810E94D51D21960F5FA1
:102BD0001F4FC830D10549F78D2D9C2D0E94A2159D
:102BE000DF91CF911F910F91FF90EF90DF90CF90E9
:102BF0000895CF92DF92EF92FF920F931F93CF939E
:102C0000DF93D82EC92E282F392FC9018C01C0E09F
:102C1000D0E0E62EFF24F801878161E00E94961D36
:102C2000B7010C2E02C0759567950A94E2F76170A2
:102C3000F80187810E94D51D21960F5F1F4FC43078
:102C4000D10549F78D2D9C2D0E94A215DF91CF91C2
:102C50001F910F91FF90EF90DF90CF9008951F93F9
:102C6000CF93DF93EC01162F8C81642F0E94D51D2A
:102C70008D818F3F19F060E00E94D51D8F8584FF04
:102C800005C0CE01612F0E94C3150EC0612F70E0F8
:102C900084E0759567958A95E1F7CE010E94F91554
:102CA000CE01612F0E94F915DF91CF911F910895F8
:102CB00041E00E942F1681E090E0089540E00E94DC
:102CC0002F160895EF92FF920F931F93CF93DF93E8
:102CD0008C017A016770660F660F660F60640E9450
:102CE0005E16C0E0D0E0D801ED91FC91D701AC0FA9
:102CF000BD1F0190F081E02DC8016C9109952196CE
:102D0000C830D10581F7DF91CF911F910F91FF90CE
:102D1000EF900895FC016089862F8460808B6C6041
:102D2000CF010E945E160895DF93CF93CDB7DEB733
:102D300028970FB6F894DEBF0FBECDBF9C01FE01F1
:102D40003196A4EDB5E088E00D9001928150E1F755
:102D5000F9018389481710F0482F4150E42FF0E023
:102D6000EE0FFF1FEC0FFD1F8181680F6068C90126
:102D70000E945E1628960FB6F894DEBF0FBECDBF38
:102D8000CF91DF91089561E00E945E1680ED97E09B
:102D90000E942F1D0895CF93DF93EC01423018F06D
:102DA0008F8588608F874B8B1C8A222329F04130C6
:102DB00019F48F8584608F8780E593EC0E942F1D26
:102DC0008C8160E00E94D51D8E8160E00E94D51D3F
:102DD0008D818F3F19F060E00E94D51D6F8564FDE5
:102DE0001DC0CE0163E00E94F91584E991E10E94C3
:102DF0002F1DCE0163E00E94F91584E991E10E9444
:102E00002F1DCE0163E00E94F91586E990E00E9433
:102E10002F1DCE0162E00E94F91516C06062CE013E
:102E20000E945E1684E991E10E942F1D6F85606209
:102E3000CE010E945E1686E990E00E942F1D6F85EC
:102E40006062CE010E945E166F856062CE010E94B4
:102E50005E1684E0888BCE010E948A16CE010E9405
:102E6000C31682E0898BCE0166E00E945E16DF9178
:102E7000CF9108956F927F928F92AF92CF92EF92FF
:102E80000F931F93DF93CF93CDB7DEB73C01162F7F
:102E9000842FF301448325830683E782C086A186BD
:102EA00082869D8593879E8594879F85958798893F
:102EB000968761E00E94961DF30185818F3F19F08E
:102EC00061E00E94961DF301868161E00E94961DDB
:102ED000112319F0F301178603C080E1F3018787FE
:102EE000C30160E141E020E00E94CB16CF91DF9169
:102EF0001F910F91EF90CF90AF908F907F906F9038
:102F000008958F92AF92CF92EF920F931F93CF932A
:102F1000DF93DC01362F542F722F102FAE2C8C2C08
:102F200013961C921E92129780ED95E011969C9339
:102F30008E9300D000D0EDB7FEB73196CDB7DEB797
:102F40001982118212821382CD0161E0432F2FEF8B
:102F5000052FE72EC12E0E943A170F900F900F9069
:102F60000F90DF91CF911F910F91EF90CF90AF9085
:102F70008F900895FC018CEC97E1928B818B768386
:102F800065831482108289E0818381E08283838358
:102F90000895FC01848108950895EF92FF920F93A4
:102FA0001F938C017B01FC01858196810E94691B26
:102FB000F80185819681B7010E94481BF80185813F
:102FC000968164EB40E00E94081BF80185819681A0
:102FD0000E94831AF82EF801858196810E94691B50
:102FE00080E0FF2009F481E01F910F91FF90EF90A6
:102FF0000895CF92DF92EF92FF920F931F938C016F
:103000006B017A01FC01858196810E94691BF801A0
:1030100085819681B6010E94481BF80185819681C1
:103020006EEB40E00E94081BF801858196810E94AA
:10303000B71AF7018083F801858196810E94B71A3B
:10304000F7018183F801858196810E94B71AF70103
:103050008283F801858196810E94B71AF7018383E4
:10306000F801858196810E94B71AF7018483F801DF
:10307000858196810E94B71AF7018583F8018581C1
:1030800096810E94B71AF7018683F801858196819F
:103090000E94B71AF7018783F801858196810E9403
:1030A000B71AF7018087F801858196810E94691B14
:1030B0001F910F91FF90EF90DF90CF900895DF93D5
:1030C000CF93CDB7DEB729970FB6F894DEBF0FBE0A
:1030D000CDBFAE014F5F5F4F0E94F917898181110B
:1030E00081E029960FB6F894DEBF0FBECDBFCF9119
:1030F000DF910895AF92BF92CF92DF92EF92FF924D
:103100000F931F93CF93DF936C015A01693051F0F5
:10311000693070F06A3019F06B3051F406C0CCEBB6
:10312000D0E008C0CEE5D0E005C0C7E7D1E002C0DE
:10313000CEEED2E0A114B10411F1F601838188230F
:10314000F1F080818823D9F40E94C81C7B018C0196
:10315000CE01AA2797FDA095BA2FE80EF91E0A1FE7
:103160001B1FC601B5010E945F18882379F40E94D5
:10317000C81C6E157F058007910740F4F2CFBE0191
:10318000882777FD8095982F0E94D61CDF91CF91DC
:103190001F910F91FF90EF90DF90CF90BF90AF9075
:1031A00008950F931F938A010E94F917C80168E0E0
:1031B0000E94721A20E0F8019085891709F421E035
:1031C000822F1F910F9108950F931F93DF93CF9339
:1031D000CDB7DEB729970FB6F894DEBF0FBECDBFCF
:1031E0008B01AE014F5F5F4F0E94D118882319F405
:1031F00040E158EF18C09A8180E02981422F50E0C9
:10320000482B592BF8018081803169F42F818CE0A3
:1032100090E0821B91094E7F73E0440F551F7A9511
:10322000E1F7480F591FCA0129960FB6F894DEBF7F
:103230000FBECDBFCF91DF911F910F9108950E94D6
:10324000E4189C0188EF213138072CF4E0E070E0AD
:103250008EEF62EC0FC0B901882777FD8095982F1B
:103260000E94822620E030E040E85DE30E9436279D
:10327000E62F692F2E2F372F482F562FB901CA015D
:103280000895DF93CF93CDB7DEB729970FB6F894A3
:10329000DEBF0FBECDBF9C01FB0180818031D9F024
:1032A000C901AE014F5F5F4F0E94D1188823A9F07A
:1032B0008D818F3361F0803418F48F3171F409C03F
:1032C0008F3519F08F3749F406C08BE007C08AE0CC
:1032D00005C089E003C08CE001C080E029960FB6EC
:1032E000F894DEBF0FBECDBFCF91DF910895EF926E
:1032F000FF920F931F93DF93CF93CDB7DEB729973C
:103300000FB6F894DEBF0FBECDBF8C017B01FC0170
:10331000858196810E94691BF80185819681B7019C
:103320000E94481BF8018581968164E440810E94D7
:10333000081BC801B701AE014F5F5F4F0E94D11853
:10334000882371F0F8018281882349F0C801B70110
:103350000E944119682FC801A7010E947A1881E0D4
:1033600029960FB6F894DEBF0FBECDBFCF91DF9187
:103370001F910F91FF90EF9008950F931F938B0172
:10338000CB0167E00E94721A20E0F801978189174B
:1033900009F421E0822F1F910F910895EF92FF927F
:1033A0000F931F93CF93DF93EC017B01042F8D814B
:1033B0009E810E94651A10E007C0CE01B7010E94ED
:1033C000BD198823A9F00AC08D819E81B7010E9492
:1033D000B41B882329F0101759F4EFCF81E001C006
:1033E00080E0DF91CF911F910F91FF90EF900895B2
:1033F0001F5F0117A8F3E8CFAF92BF92CF92DF9281
:10340000EF92FF920F931F93DF93CF93CDB7DEB769
:1034100061970FB6F894DEBF0FBECDBF7C01FC01F3
:10342000858196810E94651AF70114826E010894C5
:10343000C11CD11CE9E0AE2EB12CAC0EBD1E01E0CA
:103440002BC0C701B6010E94BD19882329F1F701DD
:103450008081882341F4C701B6010E94CD178823DB
:1034600011F0F7010083C701B601A5010E94F91709
:10347000F7011181C701B6010E944119811718F4A3
:10348000F701818104C0C701B6010E944119F7010B
:10349000818384818F5F8483F70185819681B60162
:1034A0000E94B41B882369F661960FB6F894DEBFBC
:1034B0000FBECDBFCF91DF911F910F91FF90EF9085
:1034C000DF90CF90BF90AF900895FC0113861586D2
:1034D000148687E090E012863197009711F00197EB
:1034E000FACF0895DC0180E00BC0E82FF0E08D9169
:1034F00090E0E827F927E859FF4FE49161508E2FBB
:10350000662399F70895DF92EF92FF920F931F932E
:10351000FC01E08001811281F894F80181818E29FB
:1035200081838281DE2CD0948D21828383E090E0A0
:103530000E942F1DF80181818D2181838AE090E016
:103540000E942F1DF8010081789485E390E00E948D
:103550002F1D80E010E0FF240E211F21012B09F018
:1035600081E01F910F91FF90EF90DF900895EF920F
:10357000FF920F931F93CF93DF937C0101E010E044
:10358000C0E0D0E0C7010E94831A8111102B000F08
:103590002196C830D105B1F7812FDF91CF911F91CE
:1035A0000F91FF90EF9008951F93CF93DF93FC014D
:1035B0001081C181D281912F909560FF12C0F89443
:1035C0008A8189238A838981812B89838AE090E09B
:1035D0000E942F1D8A81812B8A83789487E390E053
:1035E00011C0F8948A8189238A838981812B8983F8
:1035F00081E490E00E942F1D8A81812B8A83789438
:1036000085E090E00E942F1DDF91CF911F910895DA
:10361000CF92DF92EF92FF920F931F93CF93DF939E
:103620008C01E42EFF24F394C0E0D0E0C62EDD240C
:1036300060E08F2D90E08C219D21892B09F061E0C5
:10364000C8010E94D41AFF0C2196C830D10581F719
:10365000EE20A9F4F894D8011196ED91FC911297FF
:1036600091818C918095982391831196ED91FC9195
:10367000129792818C918095982392837894DF9110
:10368000CF911F910F91FF90EF90DF90CF90089511
:10369000EF92FF920F931F93CF93DF938C017B01E7
:1036A00065E540E00E94081BC0E0D0E0F701EC0FA8
:1036B000FD1FC801608140E00E94081B2196C830B0
:1036C000D105A1F7DF91CF911F910F91FF90EF905E
:1036D0000895DF92EF92FF920F931F93CF93DF93A2
:1036E000FC010081C181D281F8948981D02ED094CF
:1036F0008D21898378941DE7E02EFF24115059F124
:1037000082E090E00E942F1D888190E08E219F2111
:10371000892BA1F3F8948A818D218A838981802B5A
:103720008983789480EE91E00E942F1DF89489811E
:103730008D21898386E490E00E942F1D888110E00E
:1037400090E0E822F922EF2809F411E078948AE960
:1037500091E00E942F1D812FDF91CF911F910F913A
:10376000FF90EF90DF900895AF92BF92DF92EF92BB
:10377000FF920F931F93CF93DF93EC015B018D8535
:10378000882309F061C0CE010E94691B882329F4B7
:103790001B861D861C8690E06BC0CE0160EF40E06A
:1037A0000E94081B01E0DD24EE24FF24F394CE01E7
:1037B0000E94831A182FCE010E94831A113019F427
:1037C0008130E1F439C0181709F58B85081770F4BA
:1037D00060E0FE01EE0DF11D838190E02F2D30E0C1
:1037E00082239323181619064CF003C060E00817D3
:1037F00029F0093008F04CC00C874AC0FE01EE0DDC
:10380000F11D83818F29838361E009C0612FFE014F
:10381000EE0DF11D9F2D9095838189238383CE0129
:103820000E94D41A0F5FFF0C19F4E394FF24F39461
:1038300087E08E1508F0BBCF013430F0DB86DD2049
:1038400011F581E08D871FC01B861D861C8690E0C8
:10385000DE0120E030E0F501E20FF31F13968C91BA
:10386000139780832F5F3F4F11962830310599F7CA
:10387000892FDF91CF911F910F91FF90EF90DF90F3
:10388000BF90AF9008958B818823F1F291E0E0CF53
:10389000D02EBDCFFF920F931F938C01F62E862F53
:1038A00060E00E94961D8F2D90E0FC01E656FE4FD1
:1038B000E491D801EC938A579E4FFC016491E62F66
:1038C000F0E0EE0FFF1FE458FE4F859194911296A1
:1038D0009C938E9311971B961C921B971D961C927E
:1038E0001D971C961C92F80187E090E01286319794
:1038F000009711F00197FACF1F910F91FF90089553
:103900001F920F920FB60F9211242F933F938F9314
:103910009F93AF93BF9380912C0790912D07A09117
:103920002E07B0912F07309130070196A11DB11DD0
:10393000232F2D5F2D3720F02D570196A11DB11D8E
:103940002093300780932C0790932D07A0932E0788
:10395000B0932F078091280790912907A0912A07FB
:10396000B0912B070196A11DB11D8093280790935C
:103970002907A0932A07B0932B07BF91AF919F917E
:103980008F913F912F910F900FBE0F901F90189520
:103990008FB7F89420912C0730912D0740912E0776
:1039A00050912F078FBFB901CA0108959B01AC0147
:1039B0007FB7F8948091280790912907A0912A0752
:1039C000B0912B0766B5A89B05C06F3F19F0019613
:1039D000A11DB11D7FBFBA2FA92F982F8827860F51
:1039E000911DA11DB11D62E0880F991FAA1FBB1F69
:1039F0006A95D1F7BC012DC0FFB7F89480912807D4
:103A000090912907A0912A07B0912B07E6B5A89BB2
:103A100005C0EF3F19F00196A11DB11DFFBFBA2FE0
:103A2000A92F982F88278E0F911DA11DB11DE2E0AF
:103A3000880F991FAA1FBB1FEA95D1F7861B970B0A
:103A4000885E9340C8F22150304040405040685159
:103A50007C4F211531054105510571F608950197F7
:103A600039F0880F991F880F991F02970197F1F776
:103A70000895789484B5826084BD84B5816084BDE6
:103A800085B5826085BD85B5816085BDEEE6F0E0D7
:103A9000808181608083E1E8F0E010828081826033
:103AA0008083808181608083E0E8F0E080818160B4
:103AB0008083E1EBF0E0808184608083E0EBF0E0E4
:103AC000808181608083EAE7F0E080818460808388
:103AD0008081826080838081816080838081806832
:103AE00080831092C1000895982F8E3008F09E5068
:103AF00097708091BD058295880F880F807C892BF7
:103B000080937C0080917A00806480937A00809119
:103B10007A0086FDFCCF2091780040917900942FA7
:103B200080E030E0282B392BC9010895CF93DF9333
:103B3000482F50E0CA0186569E4FFC0134914A57E7
:103B40005E4FFA018491882369F190E0880F991FF4
:103B5000FC01E859FE4FA591B491FC01EE58FE4FCF
:103B6000C591D491662351F42FB7F8948C91932F7B
:103B7000909589238C93888189230BC0623061F4EE
:103B80002FB7F8948C91932F909589238C938881EB
:103B9000832B88832FBF06C09FB7F8948C91832B0B
:103BA0008C939FBFDF91CF910895482F50E0CA01B9
:103BB00082559E4FFC012491CA0186569E4FFC01FE
:103BC00094914A575E4FFA013491332309F440C06F
:103BD000222351F1233071F0243028F42130A1F058
:103BE000223011F514C02630B1F02730C1F0243056
:103BF000D9F404C0809180008F7703C08091800049
:103C00008F7D8093800010C084B58F7702C084B50B
:103C10008F7D84BD09C08091B0008F7703C08091F3
:103C2000B0008F7D8093B000E32FF0E0EE0FFF1F18
:103C3000EE58FE4FA591B4912FB7F894662321F466
:103C40008C919095892302C08C91892B8C932FBFE6
:103C50000895682F70E0CB0182559E4FFC0124919E
:103C6000CB0186569E4FFC0144916A577E4FFB0163
:103C70009491992319F420E030E03CC0222351F1C3
:103C8000233071F0243028F42130A1F0223011F5D6
:103C900014C02630B1F02730C1F02430D9F404C06C
:103CA000809180008F7703C0809180008F7D80930A
:103CB000800010C084B58F7702C084B58F7D84BD2D
:103CC00009C08091B0008F7703C08091B0008F7DD4
:103CD0008093B000892F90E0880F991F84589E4FE1
:103CE000FC01A591B4918C9120E030E0842311F087
:103CF00021E030E0C901089508951F920F920FB698
:103D00000F9211242F933F934F938F939F93EF9391
:103D1000FF938091C00082FD1DC04091C60020919C
:103D20007107309172072F5F3F4F2F733070809172
:103D30007307909174072817390771F0E0917107A4
:103D4000F0917207EF5CF84F408330937207209335
:103D5000710702C08091C600FF91EF919F918F91F2
:103D60004F913F912F910F900FBE0F901F9018957C
:103D7000E091C507F091C607E05CFF4F81919191FA
:103D800020813181805C9F4F821B930B60E470E047
:103D90000E94B827892B11F00E947C1E08951F9263
:103DA0000F920FB60F9211242F933F938F939F93EF
:103DB000EF93FF932091B5073091B6078091B70735
:103DC0009091B8072817390731F48091C1008F7D91
:103DD0008093C10014C0E091B707F091B807EB5889
:103DE000F84F20818091B7079091B80701968F73A3
:103DF00090709093B8078093B7072093C600FF9107
:103E0000EF919F918F913F912F910F900FBE0F9047
:103E10001F901895AF92BF92DF92EF92FF920F938F
:103E20001F93CF93DF93EC017A018B01DD244030A7
:103E300081EE580780E0680780E0780711F0DD2404
:103E4000D39491E0A92EB12CEC89FD89DD2069F095
:103E5000C50108A002C0880F991F0A94E2F7808369
:103E600060E079E08DE390E005C0108260E874E8DE
:103E70008EE190E0A80197010E94CB2721503040AD
:103E800040405040569547953795279580E1203022
:103E9000380720F0DD2011F0DD24D6CFE889F9893C
:103EA0003083EA89FB89208319A2EE89FF8940814A
:103EB00021E030E0C9010C8C02C0880F991F0A94E0
:103EC000E2F7482B4083EE89FF894081C9010D8CC0
:103ED00002C0880F991F0A94E2F7482B4083EE89AD
:103EE000FF894081C9010E8C02C0880F991F0A9476
:103EF000E2F7482B4083EE89FF8980810F8C02C056
:103F0000220F331F0A94E2F7209528232083DF91A4
:103F1000CF911F910F91FF90EF90DF90BF90AF90E6
:103F20000895DC011C96ED91FC911D97E05CFF4F1C
:103F30008191919120813181805C9F4F821B930BF5
:103F400060E470E00E94B8270895DC011C96ED91B2
:103F5000FC911D97E05CFF4F20813181E054F040DF
:103F6000DF01AE5BBF4F8D919C91119728173907E8
:103F700019F42FEF3FEF07C08D919C91E80FF91FC7
:103F80008081282F30E0C9010895DC011C96ED9155
:103F9000FC911D97E05CFF4F20813181E054F0409F
:103FA000DF01AE5BBF4F8D919C91119728173907A8
:103FB00019F42FEF3FEF10C08D919C911197E80FEE
:103FC000F91F20818D919C91119701968F739070AC
:103FD00011969C938E9330E0C9010895DC0191966F
:103FE0008C919197882339F05496ED91FC915597D7
:103FF000808186FFF9CF91961C920895CF93DF932D
:10400000EC01EE85FF85E05CFF4F20813181E054BB
:10401000F0402F5F3F4F2F733070DF01AE5BBF4F1B
:104020008D919C91119728173907D1F3E05CFF4FD0
:1040300080819181E054F040E80FF91F6083EE85A4
:10404000FF85E05CFF4F31832083EE89FF8920816B
:1040500081E090E00F8C02C0880F991F0A94E2F76C
:10406000282B208381E089A3EC89FD8980818064ED
:10407000808381E090E0DF91CF9108951092BC079A
:104080001092BB0788EE93E0A0E0B0E08093BD07FC
:104090009093BE07A093BF07B093C00780EE95E052
:1040A0009093BA078093B90781E397E09093C6078E
:1040B0008093C50785E797E09093C8078093C7076B
:1040C00085EC90E09093CA078093C90784EC90E058
:1040D0009093CC078093CB0780EC90E09093CE0731
:1040E0008093CD0781EC90E09093D0078093CF0729
:1040F00082EC90E09093D2078093D10786EC90E019
:104100009093D4078093D30784E08093D50783E00E
:104110008093D60787E08093D70785E08093D80700
:1041200081E08093D90708950895CF93DF930E948B
:10413000391D0E9494200E949904C8EBDEE10E9480
:1041400094042097E1F30E94B81EF9CFCF92DF923A
:10415000EF92FF920F931F93CF93DF937C016B013C
:104160008A01C0E0D0E00FC0D6016D916D01D7018A
:10417000ED91FC910190F081E02DC7010995C80FE8
:10418000D91F015010400115110571F7CE01DF91C3
:10419000CF911F910F91FF90EF90DF90CF900895F6
:1041A000CF93DF93FB01EC01A881B981608171811C
:1041B000448155811296ED91FC9113970995DF91F9
:1041C000CF910895EF92FF920F931F938C01DC0122
:1041D000ED91FC910190F081E02D6DE009957C015D
:1041E000D801ED91FC910190F081E02DC8016AE0C9
:1041F00009959C012E0D3F1DC9011F910F91FF9044
:10420000EF900895EF92FF920F931F937C010E940D
:10421000D0208C01C7010E94E2209C01200F311F99
:10422000C9011F910F91FF90EF900895CF93DF93F5
:10423000EC016115710519F420E030E00FC0DB01DD
:104240000D900020E9F71197A61BB70BE881F981C3
:104250000280F381E02DAD0109959C01C901DF9138
:10426000CF9108954F925F927F928F929F92AF92DB
:10427000BF92CF92DF92EF92FF920F931F93DF9343
:10428000CF93CDB7DEB7A1970FB6F894DEBF0FBEC0
:10429000CDBF2C01742ECB01223008F42AE019A2E4
:1042A00031E2C32ED12CCC0EDD1E822E9924AA24FD
:1042B000BB24672D752FA50194010E94CB2779019E
:1042C0008A01C801B701A50194010E949927472DD1
:1042D000461B0894C108D1084A3014F4405D01C05F
:1042E000495CF6014083E114F1040105110521F058
:1042F0007E2C5F2DC801DDCFC201B6010E941621C0
:10430000A1960FB6F894DEBF0FBECDBFCF91DF915F
:104310001F910F91FF90EF90DF90CF90BF90AF90E3
:104320009F908F907F905F904F900895CF92DF92F3
:10433000EF92FF920F931F93CF93DF93EC016A01EB
:104340007B012115310541F4E881F9810190F0816B
:10435000E02D642F09951FC02A303105D1F477FF75
:1043600017C0E881F9810190F081E02D6DE2099597
:104370008C0144275527BA014C195D096E097F0944
:10438000CE012AE00E9432219801280F391F04C073
:104390002AE00E9432219C01C901DF91CF911F9137
:1043A0000F91FF90EF90DF90CF900895EF92FF92E2
:1043B0000F931F937B019A010027F7FC0095102FA4
:1043C000B801A7010E9496211F910F91FF90EF90D5
:1043D0000895CF92DF92EF92FF920F931F936C019B
:1043E0007B019A010027F7FC0095102FB801A70167
:1043F0000E9496218C01C6010E94E220080F191F1D
:10440000C8011F910F91FF90EF90DF90CF9008951A
:104410000E9416210895EF92FF920F931F937C0143
:104420000E9416218C01C7010E94E220080F191F6B
:10443000C8011F910F91FF90EF9008950F931F9364
:10444000CF93DF93EC018B016F5F7F4F8881998160
:104450000E943625009711F480E005C09983888377
:104460001B830A8381E0DF91CF911F910F91089503
:10447000CF93DF93EC0188819981892B29F08A8180
:104480009B818617970760F4CE010E941E22882325
:1044900041F08C819D81892B19F4E881F98110828A
:1044A00081E0DF91CF910895EF92FF920F931F93D8
:1044B000CF93DF93EC017B016C817D81E114F104EA
:1044C000C1F04115510599F08A01060F171FB80177
:1044D0000E943822882369F0888199812C813D814E
:1044E000820F931FB7010E94B4011D830C8381E0EA
:1044F00001C080E0DF91CF911F910F91FF90EF906D
:104500000895FB0160817181448155810E9454228C
:104510000895CF93DF93EC0188819981009711F082
:104520000E949E24198218821D821C821B821A827C
:10453000DF91CF9108950F931F93182F092F6115C5
:10454000710561F0DB010D900020E9F71197A61BC2
:10455000B70BAD010E945422882321F4812F902FA4
:104560000E948922812F902F1F910F9108950F9300
:104570001F93182F092FFB016081718144815581A0
:104580000E945422882321F4812F902F0E94892297
:10459000812F902F1F910F910895EF92FF920F930B
:1045A0001F93CF93DF93EC017B018A01BA010E9434
:1045B0003822882321F4CE010E94892207C01D835E
:1045C0000C8388819981B7010E94B401CE01DF91EB
:1045D000CF911F910F91FF90EF900895CF93DF93AC
:1045E000EC01198218821B821A821D821C826115BD
:1045F000710551F0DB010D900020E9F71197A61B22
:10460000B70BAD010E94CD22DF91CF910895CF93DA
:10461000DF93EC01198218821B821A821D821C8290
:104620006115710551F0DB010D900020E9F711973C
:10463000A61BB70BAD010E94CD22DF91CF9108954B
:104640000F931F93182F092F6115710559F0DB0186
:104650000D900020E9F71197A61BB70BAD010E9442
:10466000CD2202C00E948922812F902F1F910F918D
:104670000895EF92FF920F931F93DF93CF93CDB7DF
:10468000DEB7A1970FB6F894DEBF0FBECDBF7C0199
:10469000CB01BA01F70111821082138212821582B6
:1046A0001482422F4E5F8E010F5F1F4F0E948A01BE
:1046B000BC01C7010E942023A1960FB6F894DEBF6B
:1046C0000FBECDBFCF91DF911F910F91FF90EF9063
:1046D0000895EF92FF920F931F93DF93CF93CDB77F
:1046E000DEB762970FB6F894DEBF0FBECDBF8C0168
:1046F000CB01F8011182108213821282158214827A
:104700007E010894E11CF11CB70150E00E94BB013E
:10471000C801B7010E94202362960FB6F894DEBF4D
:104720000FBECDBFCF91DF911F910F91FF90EF9002
:104730000895EF92FF920F931F93DF93CF93CDB71E
:10474000DEB729970FB6F894DEBF0FBECDBF8C0140
:10475000862FF80111821082138212821582148230
:1047600090E07E010894E11CF11CB70150E00E942A
:10477000DC01C801B7010E94202329960FB6F894E6
:10478000DEBF0FBECDBFCF91DF911F910F91FF9084
:10479000EF900895CF93DF93EC01FB018617970705
:1047A00061F0608171816115710529F04481558145
:1047B0000E94CD2202C00E948922CE01DF91CF91BA
:1047C0000895FC01118210821382128215821482D4
:1047D0000E94CA230895FC01118210821382128262
:1047E000158214820E94CA230895FC018081918160
:1047F0000E949E240895FC01808191810E949E2444
:1048000008950F931F93CF93DF93BC0182309105DE
:1048100010F462E070E0E091DD07F091DE07A0E0C7
:10482000B0E040E050E024C0808191818617970776
:10483000D0F08617970771F482819381109729F041
:1048400013969C938E9312972CC09093DE078093BF
:10485000DD0727C04115510519F08417950718F495
:10486000EF018D01AC01DF01828193819C01F9018F
:104870003097D1F641155105F9F0CA01861B970B07
:104880008430910580F48A819B810115110521F006
:10489000F8019383828304C09093DE078093DD0741
:1048A000FE01329645C0FE01E80FF91F6193719336
:1048B0000297998388833CC08091DB079091DC0745
:1048C000892B41F48091C0059091C1059093DC073C
:1048D0008093DB074091C2055091C30541155105F6
:1048E00041F44DB75EB78091BE059091BF05481B5E
:1048F000590B2091DB073091DC0724173507B0F402
:10490000CA01821B930B8617970780F0AB014E5F9D
:104910005F4F8417950750F0420F531F5093DC07E9
:104920004093DB07F9016193719302C0E0E0F0E08E
:10493000CF01DF91CF911F910F910895CF93DF9316
:104940009C01009709F48FC0EC0122971B821A8208
:104950006091DD077091DE076115710581F4888132
:104960009981820F931F2091DB073091DC07281774
:10497000390739F5D093DC07C093DB0774C0DB013E
:1049800040E050E0AC17BD0708F1BB83AA83FE01ED
:1049900021913191E20FF31FAE17BF0779F48D918A
:1049A0009C911197280F391F2E5F3F4F3983288321
:1049B00012968D919C9113979B838A834115510583
:1049C00071F4D093DE07C093DD074DC012968D9130
:1049D0009C911397AD01009711F0DC01D3CFDA0160
:1049E0001396DC93CE931297FA0121913191E20F45
:1049F000F31FCE17DF0769F488819981280F391FCB
:104A00002E5F3F4FFA01318320838A819B819383FC
:104A10008283E0E0F0E0DB0112968D919C91139788
:104A2000009719F0BC01FD01F6CFAB014E5F5F4F5F
:104A3000DB018D919C91840F951F2091DB073091B4
:104A4000DC072817390779F4309729F41092DE072C
:104A50001092DD0702C013821282425050405093E0
:104A6000DC074093DB07DF91CF9108956F927F922F
:104A70008F929F92AF92BF92CF92DF92EF92FF926E
:104A80000F931F93CF93DF938C01009729F4CB01F1
:104A90000E9401248C01BBC08EEFE82E8FEFF82E10
:104AA000E00EF11E4801860E971E8E149F0408F436
:104AB000ACC0D7014D915C91119746175707B8F0DC
:104AC0004530510508F4A3C0CA010497861797071B
:104AD00008F49DC042505040461B570BF4014193CF
:104AE00051936D937C93CF010E949E2490C05B01F3
:104AF000A41AB50A3801640E751EA091DD07B091A5
:104B0000DE07CC24DD24E0E0F0E047C0A615B705C1
:104B1000A9F5CD91DC911197CE0102968A159B05DE
:104B200068F1CE018A199B09029612962C91129770
:104B300013963C91059758F0F40122833383CA19E8
:104B4000DB09D183C083D7016D937C9309C04E5F8D
:104B50005F4F4C0F5D1FF70151834083C901FC017A
:104B6000C114D10431F0D6011396FC93EE93129741
:104B70004EC0F093DE07E093DD0749C08D919C9114
:104B80001197E817F90708F4FC016D0112968C9152
:104B9000129713969C919C01D901109709F0B6CFFA
:104BA0008091DB079091DC0786159705E9F4E617FD
:104BB000F707D0F42091C2053091C30521153105C6
:104BC00041F42DB73EB78091BE059091BF05281BDB
:104BD000390B82169306C8F49092DC078092DB07AB
:104BE000F7017183608313C0CB010E940124EC01A3
:104BF000009759F0D7014D915C91B8010E94AB012B
:104C0000C8010E949E248E0102C000E010E0C8018D
:104C1000DF91CF911F910F91FF90EF90DF90CF9098
:104C2000BF90AF909F908F907F906F900895505855
:104C3000BB27AA270ED0DCC0CDD030F0D2D020F0D8
:104C400031F49F3F11F41EF4C2C00EF4E095E7FB6F
:104C5000B8C0E92FDED080F3BA1762077307840764
:104C6000950718F071F49EF5F6C00EF4E0950B2E42
:104C7000BA2FA02D0B01B90190010C01CA01A001AE
:104C80001124FF27591B99F0593F50F4503E68F109
:104C90001A16F040A22F232F342F4427585FF3CF4A
:104CA000469537952795A795F0405395C9F77EF41B
:104CB0001F16BA0B620B730B840BBAF09150A1F064
:104CC000FF0FBB1F661F771F881FC2F70EC0BA0FEA
:104CD000621F731F841F48F4879577956795B79572
:104CE000F7959E3F08F0B3CF9395880F08F099276A
:104CF000EE0F97958795089540D008F481E00895C8
:104D0000E89409C097FB3EF4909580957095619565
:104D10007F4F8F4F9F4F9923A9F0F92F96E9BB271B
:104D20009395F695879577956795B795F111F8CF97
:104D3000FAF4BB0F11F460FF1BC06F5F7F4F8F4F02
:104D40009F4F16C0882311F096E911C0772321F0F8
:104D50009EE8872F762F05C0662371F096E8862F90
:104D600070E060E02AF09A95660F771F881FDAF7E7
:104D7000880F9695879597F90895990F0008550F14
:104D8000AA0BE0E8FEEF16161706E807F907C0F0D1
:104D900012161306E407F50798F0621B730B840BD9
:104DA000950B39F40A2661F0232B242B252B21F4B3
:104DB00008950A2609F4A140A6958FEF811D811D53
:104DC000089597F99F6780E870E060E008959FEF8D
:104DD00080EC089500240A94161617061806090692
:104DE000089500240A941216130614060506089561
:104DF000092E0394000C11F4882352F0BB0F40F4E9
:104E0000BF2B11F460FF04C06F5F7F4F8F4F9F4F28
:104E1000089557FD9058440F551F59F05F3F71F0AA
:104E20004795880F97FB991F61F09F3F79F0879511
:104E30000895121613061406551FF2CF4695F1DF9A
:104E400008C0161617061806991FF1CF869571052A
:104E5000610508940895E894BB2766277727CB015E
:104E600097F908958ADF08F48FEF08950BD0C0CF2B
:104E7000B1DF28F0B6DF18F0952309F0A2CFA7CF55
:104E80001124EACFC6DFA0F3959FD1F3950F50E030
:104E9000551F629FF001729FBB27F00DB11D639FEC
:104EA000AA27F00DB11DAA1F649F6627B00DA11D92
:104EB000661F829F2227B00DA11D621F739FB00D38
:104EC000A11D621F839FA00D611D221F749F3327A8
:104ED000A00D611D231F849F600D211D822F762F41
:104EE0006A2F11249F5750408AF0E1F088234AF03E
:104EF000EE0FFF1FBB1F661F771F881F915050408A
:104F0000A9F79E3F510570F05CCFA6CF5F3FECF351
:104F1000983EDCF3869577956795B795F795E79575
:104F20009F5FC1F7FE2B880F911D9695879597F986
:104F30000895629FD001739FF001829FE00DF11DE3
:104F4000649FE00DF11D929FF00D839FF00D749F03
:104F5000F00D659FF00D9927729FB00DE11DF91FAF
:104F6000639FB00DE11DF91FBD01CF01112408950C
:104F700097FB092E07260AD077FD04D02ED006D045
:104F800000201AF4709561957F4F0895F6F790957B
:104F900081959F4F0895A1E21A2EAA1BBB1BFD010C
:104FA0000DC0AA1FBB1FEE1FFF1FA217B307E40708
:104FB000F50720F0A21BB30BE40BF50B661F771F60
:104FC000881F991F1A9469F7609570958095909540
:104FD0009B01AC01BD01CF010895AA1BBB1B51E190
:104FE00007C0AA1FBB1FA617B70710F0A61BB70B59
:104FF000881F991F5A95A9F780959095BC01CD01FE
:105000000895EE0FFF1F0590F491E02D09942F9263
:105010003F924F925F926F927F928F929F92AF9248
:10502000BF92CF92DF92EF92FF920F931F93CF9395
:10503000DF93CDB7DEB7CA1BDB0B0FB6F894DEBF2C
:105040000FBECDBF09942A88398848885F846E8452
:105050007D848C849B84AA84B984C884DF80EE809C
:10506000FD800C811B81AA81B981CE0FD11D0FB6A5
:10507000F894DEBF0FBECDBFED010895F894FFCFC9
:10508000202000200073746570536574496E74208D
:105090000073746570536574466C6F6174200043CF
:1050A0006F6E66696775726120656C207469656DE5
:1050B000706F20792074656D7065726174757261AE
:1050C0002064656C20657363616C6F6E20004545DC
:1050D00050524F4D5F7772697465416E797468699B
:1050E0006E6720627265774D6173685374657030C6
:1050F00054696D650020202000206D696E206120BC
:10510000002020202000430053657474696E6720DE
:10511000736176652073746570536574496E74208D
:105120000053657474696E672073617665207374CB
:105130006570536574466C6F6174200020202020D8
:10514000477561726461723F20202020004E4F201D
:105150002020202020202020202053490045455099
:10516000524F4D5F7772697465416E797468696EEC
:105170006720627265774D6173685374657030544F
:10518000656D700020204775617264616E646F2EDA
:105190002E2E202000456E7472616E646F20612097
:1051A0006D6F646F206D6163657261646F00456E41
:1051B0007472616E646F2061206D6F646F20726520
:1051C00063697263756C61646F00456E7472616EC1
:1051D000646F2061206D6F646F206C617661646F15
:1051E00000456E7472616E646F2061206D6F646F34
:1051F00020686572766F7200456E7472616E646FBE
:105200002061206D6F646F2077686972706F6F6CBA
:1052100000456E7472616E646F2061206D6F646F03
:1052200020656E66726961646F00484C54200048C6
:105230006F742020002A004D54200050756D70209E
:10524000004D616E75616C2F4D6F6E69746F7200E9
:10525000436F6363696F6E004665726D656E74615E
:10526000646F7200436F6E66696775726163696F20
:105270006E004D6F6E69746F720043616C656E7481
:10528000617200426F6D62656172004D61636572AB
:1052900061646F00457363616C6F6E20696E696352
:1052A00069616C00457363616C6F6E2031004573FA
:1052B00063616C6F6E203200457363616C6F6E20AA
:1052C0003300457363616C6F6E203400526563690F
:1052D0007263756C61646F00526563697263756CAB
:1052E00061646F20636F6E74696E756F00546965D9
:1052F0006D706F20646520726563697263756C619F
:10530000646F004C617661646F0054656D70657206
:1053100061747572612064656C206C617661646F84
:10532000005469656D706F206465206C61766164FE
:105330006F00486572766F72005469656D706F20FA
:10534000646520686572766F72004164657369C335
:10535000B36E206465206C7570756C6F5B735D0057
:10536000457363616C6F6E6573206465206164656D
:105370007369C3B36E00576869726C706F6F6C00AD
:105380005469656D706F20646520776869726C7010
:105390006F6F6C00456E66726961646F000030006B
:1053A0004275736361206C6F732073656E736F72E7
:1053B00065732028445331382A2920636F6E656352
:1053C0007461646F7320792064657675656C7665A9
:1053D000206C617320646972656363696F6E6573C5
:1053E000202B20696E646963650042757363616E8A
:1053F000646F20646973706F73697469766F732E5C
:105400002E2E00536520656E636F6E747261726F2D
:105410006E200020646973706F73697469766F73AE
:105420002E0042757363616E646F00646973706F00
:1054300073697469766F73202E2E2E0053656E7318
:105440006F723A200020414444523A2000205465B3
:105450006D7065726174757261206465206C65633E
:10546000747572613A200020430046696E206469B9
:1054700073636F76657253656E736F727300446900
:1054800073706F73697469766F7300656E636F6EA6
:10549000747261646F73200053656E736F722000C5
:1054A000204F4B00203F3F00436F6E666967757267
:1054B000617220454E544552002020456C6563744E
:1054C000726F426972726100202076302E32203273
:1054D000303135303600456E7472616E646F206114
:1054E000206D6F646F206D6F6E69746F7200456E12
:1054F0007472616E646F2061206D6F646F206272E0
:10550000657700456E7472616E646F2061206D6F07
:10551000646F206665726D656E7461646F720045BC
:105520006E7472616E646F2061206D6F646F2063B2
:105530006F6E66696775726163696F6E00018000E6
:10554000DF07000028FFBA514B04002600000000CE
:105550005816A6200000400014005400000000006F
:0C556000FE1FA620911FC51FA51FEE1FF7
:00000001FF
