:100000000C9460010C9488010C9488010C94880174
:100010000C9488010C9488010C9488010C9488013C
:100020000C9488010C9488010C9488010C9488012C
:100030000C9488010C9488010C9488010C9488011C
:100040000C944E210C9488010C944B230C949D230A
:100050000C9488010C9488010C9488010C948801FC
:100060000C9488010C948801005EBCE2613FDD8342
:10007000C29C7E20A3FD1F419DC3217FFCA2401E88
:100080005F01E3BD3E6082DC237D9FC1421CFEA078
:10009000E1BF5D0380DE3C62BEE0025CDF81633D68
:1000A0007C22C09E1D43A1FF4618FAA427799BC558
:1000B00084DA3866E5BB5907DB856739BAE4065848
:1000C0001947A5FB7826C49A653BD987045AB8E638
:1000D000A7F91B45C6987A24F8A6441A99C7257B28
:1000E0003A6486D85B05E7B98CD2306EEDB3510F18
:1000F0004E10F2AC2F7193CD114FADF3702ECC9208
:10010000D38D6F31B2EC0E50AFF1134DCE90722CF7
:100110006D33D18F0C52B0EE326C8ED0530DEFB1E7
:10012000F0AE4C1291CF2D73CA947628ABF51749D7
:100130000856B4EA6937D58B5709EBB536688AD4C7
:1001400095CB2977F4AA4816E9B7550B88D6346AB7
:100150002B7597C94A14F6A8742AC896154BA9F7A7
:10016000B6E80A54D7896B35000000002400270048
:100170002A0000000000250028002B0000000000DD
:1001800023002600290004040404040404040202D9
:100190000202020203030303030301020408102006
:1001A0004080010204081020010204081020000011
:1001B0000007000201000003040600000000000028
:1001C000000000407A10F35A00A0724E1809001087
:1001D000A5D4E80000E87648170000E40B540200BC
:1001E00000CA9A3B000000E1F505000080969800E7
:1001F000000040420F000000A08601000000102710
:1002000000000000E803000000006400000000009F
:100210000A00000000000100000000002C76D888D1
:10022000DC674F0823DFC1DFAE59E1B1B796E5E3E4
:10023000E453C63AE651997696E8E6C28426EB89FD
:100240008C9B62ED407C6FFCEFBC9C9F40F2BAA59A
:100250006FA5F490055A2AF75C936B6CF9676DC132
:100260001BFCE0E40D47FEF520E6B500D0ED902E36
:100270000300943577050080841E080000204E0A94
:10028000000000C80C333333330F986E12831141D2
:10029000EF8D2114893BE65516CFFEE6DB18D1849D
:1002A0004B381BF77C1D901DA4BBE42420328472C4
:1002B0005E228100C9F124ECA1E53D2726040C252E
:1002C00011241FBECFEFD8E0DEBFCDBF15E0A0E008
:1002D000B1E0E4EBF7E502C005900D92AA30B1075A
:1002E000D9F716E0AAE0B5E001C01D92AE3FB10714
:1002F000E1F712E0C0ECD2E004C02297FE010E94B8
:100300009D2BCC3BD107C9F70E9463250C94D82BB9
:100310000C940000EF92FF920F931F93F22FF02E98
:1003200047FD02C0E4E001C0E4E1242F332727FDAC
:10033000309537FF03C0309521953F4F4F2D512FFA
:100340000F2FEE2E0E94DC018F2D912F1F910F9108
:10035000FF90EF900895FB01DC0102C001900D9227
:1003600041505040D8F70895FB01DC0101900D92F7
:100370000020E1F70895FB019F01E8944230C4F0AA
:100380004532B4F44A3029F497FB1EF490958195D8
:100390009F4F642F77270E94872B805D8A330CF054
:1003A000895D8193CB010097A1F716F45DE251932B
:1003B0001082C9010C941604A9E0B0E0E2EEF1E06D
:1003C0000C94A52B6A01122FA02EBE2C2BE3201714
:1003D00018F42CE3922E02C0902E9394AE014F5F3E
:1003E0005F4F27E0092D0E943E03BC018981E82E62
:1003F000FF24C70189709070019711F4ADE209C024
:10040000B1FE02C0ABE205C0B0FC02C0A0E001C07A
:10041000A0E2E3FE3BC0AA2311F423E001C024E0E4
:10042000211710F020E002C0121B212FEB2CB4FE8C
:1004300002C0322F0AC0F601322F80E202C081933F
:1004400031503323E1F7C20ED11CAA2319F0F60173
:10045000A1936F01F6013196E2FE05C09EE4D6013C
:100460009C9381E404C09EE6D6019C9381E611969C
:100470008C9391833296DF01832F90E202C09D938B
:1004800081508823E1F7E30FF11D40C0E2FE42C036
:10049000AA2311F423E001C024E0211710F020E08A
:1004A00002C0121B212FEB2CB4FE02C0922F0AC0F7
:1004B000F601922F80E202C0819391509923E1F7D7
:1004C000C20ED11CAA2319F0F601A1936F01F60107
:1004D0003196E2FE08C089E4D6018C938EE4119631
:1004E0008C9386E407C089E6D6018C938EE611963C
:1004F0008C9386E681833296DF01892F20E202C049
:100500002D9381508823E1F7E90FF11D10822EEF22
:100510003FEFAFC0161617061CF041E050E003C0D5
:10052000AB014F5F5F4FAA2019F480E090E003C059
:100530008A2D90E0019620E030E0AA2311F021E01E
:1005400030E0240F351F280F391F812F90E0281726
:10055000390714F020E002C0121B212F4B2D50E070
:10056000CA0180719070B4FC0DC0B3FC0BC0F601E1
:10057000322F40E202C0419331503323E1F7C20EE3
:10058000D11C01C0322FAA2319F0F601A1936F01EB
:10059000892B11F0132F0AC0F601132F80E302C03C
:1005A000819311501123E1F7C30ED11C092D060FC1
:1005B000BA8090E1892E912C8E209F20E4FE04C009
:1005C000F1E3BF1609F40150101614F001E003C066
:1005D000093008F008E09B0177FF02C020E030E01E
:1005E000CB010196821B930BFE013196E80FF91F98
:1005F0008EE2F82E3B01601A71088A2D90E04427A4
:100600005527481B590B8FEF2F3F380719F4D60198
:10061000FD926D01621773072CF06216730614F4D5
:10062000808101C080E32150304031962417350786
:1006300024F0D6018D936D01E6CF2617370749F4D4
:10064000B5E3BB1528F0BB1621F48114910409F41D
:1006500081E3F6018193D601812F90E202C09C9341
:10066000815011968823D9F7E10FF11D108220E007
:1006700030E0C9012996EEE00C94C12B283008F037
:1006800027E03327DA01990F311D87FD916000962D
:100690006105710539F432602E5F3D9330E32A9590
:1006A000E1F708959F3F30F080387105610509F04A
:1006B0003C5F3C5F3D93913008F08068911DDF9373
:1006C000CF931F930F93FF92EF92192F987F9695D8
:1006D000E92F96959695E90FFF27E45EFD4F992740
:1006E0003327EE24FF24A701E7010590089407941F
:1006F00028F4360FE71EF81E491F511D660F771F9D
:10070000881F991F0694A1F70590079428F4E70E17
:10071000F81E491F561FC11D770F881F991F661F9E
:100720000694A1F70590079428F4F80E491F561F68
:10073000C71FD11D880F991F661F771F0694A1F749
:100740000590079420F4490F561FC71FD81F990F13
:10075000661F771F881F0694A9F78491109517705C
:1007600041F0D695C79557954795F794E7941A9514
:10077000C1F7E2ECF1E0689415901591359165911F
:10078000959105907FE27395E118F10A430B560BA2
:10079000C90BD009C0F7E10CF11E431F561FC91F3A
:1007A000D01D7EF4703311F48A95E6CFE8940150A1
:1007B00030F0080F0AF40027021708F4202F2395C1
:1007C000022F7A3328F079E37D932A95E9F710C058
:1007D0007D932A9589F60694979567953795179591
:1007E0001794E118F10A430B560BC90BD00998F086
:1007F00023957E9173957A3308F070E37C932013F0
:10080000B8F77E9170617D9330F0839571E37D93AD
:1008100070E32A95E1F71124EF90FF900F911F915B
:10082000CF91DF91992787FD90950895DC01FC0118
:10083000672F71917723E1F7329704C07C916D9314
:1008400070836291AE17BF07C8F308958F929F928D
:10085000AF92BF92CF92DF92EF92FF920F931F93CE
:100860008DB79EB740970FB6F8949EBF0FBE8DBF51
:10087000EDB7FEB7319682E090E0ADB7BEB7129605
:100880009C938E9311978AE090E0938382838DE00E
:1008900090E0958384838CE090E0978386839187B2
:1008A000808793878287958784878BE090E09787FE
:1008B00086878AE095E06EE070E048E050E029E04D
:1008C00030E004E010E0B5E0EB2EF12CA6E0CA2EFB
:1008D000D12CF7E0AF2EB12CE0E18E2E912C0E94AE
:1008E0007D158DB79EB740960FB6F8949EBF0FBE8C
:1008F0008DBF1F910F91FF90EF90DF90CF90BF9031
:10090000AF909F908F9008958AE095E00E947114B7
:1009100008950F931F9388ED96E040E855E260E05C
:1009200070E00E94D8238CE061E00E9464228BE09A
:1009300061E00E9464228CE061E00E94A3228BE0CF
:1009400061E00E94A32201E316E0C8010E94C21BDD
:10095000C80160E071E00E940026C80160E041E04B
:100960000E94931BC8016FE071E00E94002664ECB6
:1009700079E080E090E00E94A4211F910F910895FA
:10098000FF920F931F93CF93DF93EC01F62E8C0110
:10099000095D1E4FC801642F422F0E94931B8C815A
:1009A000882359F0FF2019F46DE171E002C06FE176
:1009B00071E0CE01895D9E4F03C0C80161E271E024
:1009C0000E9400268C8191E089278C83DF91CF9152
:1009D0001F910F91FF9008950F931F938C01095D54
:1009E0001E4FC8010E94C21BC80160E040E00E9487
:1009F000931BC80163E271E00E94002668EE73E079
:100A000080E090E00E94A4211F910F9108952F9201
:100A10003F924F925F926F927F928F929F92AF928E
:100A2000BF92CF92DF92FF920F931F93DF93CF93EA
:100A3000CDB7DEB72C970FB6F894DEBF0FBECDBF93
:100A40004C01F62E1A01290138018C010D5D1E4F53
:100A500087E0A82EB12CAC0EBD1E6E010894C11CFF
:100A6000D11C27C0FF24F394C8010E94641A81118D
:100A7000FF24C4016F2DA20193010E94C004C5018F
:100A800064E371E00E94F726C6016F2D70E04AE032
:100A90000E945927C501B6010E94A726BC0188ED16
:100AA00096E00E94D025C6010E94AA27C5010E9497
:100AB000B027C8010E94541A882381F4C8010E94FB
:100AC0005C1A882359F4C8010E944C1A882331F417
:100AD000C8010E946C1A882329F6C6CFF101F08262
:100AE0002C960FB6F894DEBF0FBECDBFCF91DF912D
:100AF0001F910F91FF90DF90CF90BF90AF909F908C
:100B00008F907F906F905F904F903F902F900895BF
:100B1000CF92DF92EF92FF920F931F937C018B0194
:100B200096E4C92E96E0D92EC601B701F80140819E
:100B30000E94951A0894E11CF11CC601B701F80146
:100B400041810E94951A82E090E01F910F91FF90E1
:100B5000EF90DF90CF900895EF92FF920F931F9345
:100B6000CF93DF937C018B01C0E0D0E0BE016E0D1E
:100B70007F1DF801EC0FFD1F86E496E040810E9486
:100B8000951A2196C430D10589F784E090E0DF9171
:100B9000CF911F910F91FF90EF900895CF92DF9228
:100BA000EF92FF920F931F937C018B0126E4C22EDC
:100BB00026E0D22EC601B7010E948E1AF80180836A
:100BC0000894E11CF11CC601B7010E948E1AF801BD
:100BD000818382E090E01F910F91FF90EF90DF9072
:100BE000CF900895EF92FF920F931F93CF93DF93CF
:100BF000AC01EB0134E0E32EF12CE60EF71E8A0186
:100C00000F5F1F4F86E496E0BA010E948E1A899307
:100C1000A801CE15DF0599F784E090E0DF91CF9130
:100C20001F910F91FF90EF900895EF92FF920F9315
:100C30001F93CF93DF93AC017B01C0E0D0E08A012A
:100C40000F5F1F4F86E496E0BA010E948E1AF701EB
:100C500081937F012196A801C830D10581F788E0F2
:100C600090E0DF91CF911F910F91FF90EF90089549
:100C7000EF92FF920F931F938C01055A1F4FF801BB
:100C8000118210820B55104047E2E42E41E0F42E11
:100C9000E00EF11EC7010E94C21BC70160E040E0E8
:100CA0000E94931B095A1F4FC701F80160810E94DF
:100CB000571B0A581F4FF801619171918F01C701AD
:100CC0000E940026C70160E041E00E94931BF801EA
:100CD00060817181C7010E9400261F910F91FF90D2
:100CE000EF900895EF92FF920F931F937C018C0178
:100CF000095D1E4FC8010E94C21BC80160E040E0B0
:100D00000E94931BC80160E471E00E940026C801A4
:100D100060E041E00E94931B83E590E0E80EF91E3D
:100D2000C801F70160810E94571BC8016FE041E0D4
:100D30000E94931B82E090E0E80EF91EC801F701C3
:100D400060810E94571BC80161E041E00E94931B33
:100D5000C80161E571E00E9400261F910F91FF908C
:100D6000EF900895EF92FF920F931F93CF93DF932D
:100D7000EC017BE5E72EF12CE80EF91ED7018D91F1
:100D80009C91119718161906BCF501978D939C93A9
:100D90008E01095D1E4FC8010E94C21BC80160E0A0
:100DA00040E00E94931BFE01E95AFF4FC801608199
:100DB0000E94571BD701ED91FC91EE0FFF1FEC0F26
:100DC000FD1FE353FF4F60817181C8010E9400261F
:100DD000C80160E041E00E94931BF701808191818E
:100DE0000196880F991FC80FD91FC353DF4F688121
:100DF0007981C8010E940026DF91CF911F910F9148
:100E0000FF90EF900895EF92FF920F931F93CF936F
:100E1000DF93EC01BBE5EB2EF12CE80EF91ED701B8
:100E20008D919C91119783309105BCF501968D931E
:100E30009C938E01095D1E4FC8010E94C21BC80110
:100E400060E040E00E94931BD701ED91FC91319747
:100E5000EE0FFF1FEC0FFD1FE353FF4F6081718109
:100E6000C8010E940026C80160E041E00E94931B77
:100E7000FE01E95AFF4FC80160810E94571BF7012C
:100E800080819181880F991FC80FD91FC353DF4FED
:100E900068817981C8010E940026DF91CF911F915E
:100EA0000F91FF90EF9008956F927F928F929F9293
:100EB000AF92BF92CF92DF92EF92FF920F931F9368
:100EC000DF93CF9300D000D000D0CDB7DEB73A018A
:100ED0007B01EE0CFF1CE60EF71EEE0CFF1CEE0C69
:100EE000FF1C2BED30E0E20EF31EE80EF91ECC24C1
:100EF000DD24AA24BB244E010894811C911C17C038
:100F0000F70160817181C4010E94DE260D811E817E
:100F1000C4010E94AA27012B19F00894C11CD11CFE
:100F20000894A11CB11C22E030E0E20EF31EA614CE
:100F3000B70434F3C60126960FB6F894DEBF0FBE91
:100F4000CDBFCF91DF911F910F91FF90EF90DF9078
:100F5000CF90BF90AF909F908F907F906F900895AB
:100F60006F927F928F929F92AF92BF92CF92DF92B9
:100F7000EF92FF920F931F93CF93DF93EC016B01DE
:100F80003A01122F46E050E00E94540777E2E72E24
:100F900071E0F72EEC0EFD1EC7010E94C21BC701B7
:100FA00060E040E00E94931B67E5862E912C8C0E3A
:100FB0009D1E5601AA0CBB1C112301F1C701F401AF
:100FC00060810E94571B85010C0D1D1D000F111F14
:100FD000060D171DF801EE0FFF1FEC0FFD1FE55268
:100FE000FF4F60817181C7010E940026C70160E048
:100FF00041E00E94931B0F5F1F4F1EC085010C0D27
:101000001D1D000F111F060D171DF8013197EE0F62
:10101000FF1FEC0FFD1FE552FF4F60817181C7017B
:101020000E940026C70160E041E00E94931BC701B7
:10103000F40160810E94571B000F111FC00FD11FC8
:10104000C552DF4F68817981C7010E940026DF9178
:10105000CF911F910F91FF90EF90DF90CF90BF90B5
:10106000AF909F908F907F906F90089565E070E0B3
:1010700041E050E021E00E94B007089564E070E094
:1010800041E050E021E00E94B007089563E070E085
:1010900041E050E021E00E94B007089562E070E076
:1010A00041E050E021E00E94B00708952F923F9266
:1010B0004F925F926F927F928F929F92AF92BF9268
:1010C000CF92DF92EF92FF920F931F93DF93CF9314
:1010D000CDB7DEB7E9970FB6F894DEBF0FBECDBF30
:1010E00098AF8FAB3A014B0118012901A9AE895D78
:1010F0009E4F9EAB8DAB0E94C21BABE2AA2EB12CC1
:10110000AC0EBD1EC401B30143E021E085010E9485
:101110008A01BC014E010894811C911CC4010E94EB
:10112000DE26C201B10143E021E00E948A01BC0138
:10113000CE0107960E94DE26C701B60143E021E0FA
:101140000E948A01BC01CE010D960E94DE26F9E1C3
:10115000EF2EF12CEC0EFD1EC70160E671E00E943F
:10116000F7268E010D5E1F4FC801B4010E94A02713
:10117000C701B8010E94A726BC018DA99EA90E94A3
:101180009E25C8010E94AA27C7010E94B0278DA9E9
:101190009EA96AE040E00E94931B8DA99EA965E686
:1011A00071E00E94002689AD83FF07C08DA99EA92A
:1011B0006BE671E00E94002609C0EFA9F8ADE15B83
:1011C000FF4F8DA99EA960810E94571B8DA99EA9E2
:1011D00060E041E00E94931BE5E2EE2EF12CEC0E64
:1011E000FD1EC7016DE671E00E94F7268E01015ECB
:1011F0001F4FC801BE01695F7F4F0E94A027C70132
:10120000B8010E94A726BC018DA99EA90E949E2517
:10121000C8010E94AA27C7010E94B0278DA99EA9D4
:101220006AE041E00E94931B8DA99EA961E771E0ED
:101230000E94002699AD92FF07C08DA99EA96BE67A
:1012400071E00E94002609C0EFA9F8ADEF5AFF4FE8
:101250008DA99EA960810E94571BCE010D960E9408
:10126000AA27CE0107960E94AA27CE0101960E94C6
:10127000AA27E9960FB6F894DEBF0FBECDBFCF9177
:10128000DF911F910F91FF90EF90DF90CF90BF9073
:10129000AF909F908F907F906F905F904F903F9016
:1012A0002F9008954F925F926F927F928F929F92AC
:1012B000AF92BF92CF92DF92EF92FF920F931F9364
:1012C000DF93CF93CDB7DEB76E970FB6F894DEBF3E
:1012D0000FBECDBF5C013B01542E422E97E2892EFA
:1012E00091E0992E8A0C9B1CC401642F422F0E940E
:1012F000931B8AE0681671047CF5C401652D442DAA
:101300000E94931BF5018481882309F187E0E82E70
:10131000F12CEC0EFD1EC70167E771E00E94F72675
:101320008E010F5F1F4FC801B3014AE00E94592789
:10133000C701B8010E94A726BC01C4010E949E25D6
:10134000C8010E94AA27C7010E94B02705C0C40196
:101350006AE771E00E940026C3010A978A35910569
:10136000A8F5C401652D442D0E94931BF5018481CD
:1013700007E2C02E01E0D02ECA0CDB1C882309F145
:1013800013E1E12EF12CEC0EFD1EC70161E271E0CC
:101390000E94F7268E01035F1F4FC801B3014AE088
:1013A0000E945927C701B8010E94A726BC01C601A7
:1013B0000E949E25C8010E94AA27C7010E94B0274B
:1013C00005C0C6016AE771E00E940026F4E66F16C8
:1013D000710424F1C401652D442D0E94931BF50175
:1013E0008481B7E2CB2EB1E0DB2ECA0CDB1C882354
:1013F00081F08E01075E1F4FC801B3014AE00E94D1
:101400005927C601B8010E949E25C8010E94AA273B
:1014100005C0C6016AE771E00E940026F5018481DB
:1014200091E0892784836E960FB6F894DEBF0FBED5
:10143000CDBFCF91DF911F910F91FF90EF90DF9083
:10144000CF90BF90AF909F908F907F906F905F9064
:101450004F9008952F923F924F925F926F927F929A
:101460008F929F92AF92BF92CF92DF92EF92FF92B4
:101470000F931F93DF93CF93CDB7DEB72E970FB6A1
:10148000F894DEBF0FBECDBF3C016B015A013E8711
:101490002D87180127018C010D5D1E4F27E0822E3C
:1014A000912C8C0E9D1E7E010894E11CF11C2BC01A
:1014B000CA0CDB1CC8010E94641A882329F0CA14D4
:1014C000DB0414F0CA18DB08C301B601A1019201C4
:1014D0000E945209C40164E371E00E94F726C7012B
:1014E000B6014AE00E945927C401B7010E94A7260D
:1014F000BC0188ED96E00E94D025C7010E94AA2772
:10150000C4010E94B027C8010E94541A882381F4A4
:10151000C8010E945C1A882359F4C8010E944C1A21
:10152000882331F4C8010E946C1A882309F6C2CFBF
:10153000ED85FE85D182C0822E960FB6F894DEBF6F
:101540000FBECDBFCF91DF911F910F91FF90EF9014
:10155000DF90CF90BF90AF909F908F907F906F90D3
:101560005F904F903F902F9008954F925F926F92AF
:101570007F928F929F92BF92CF92DF92EF92FF92D3
:101580000F931F93DF93CF93CDB7DEB768970FB656
:10159000F894DEBF0FBECDBF4C018C01095D1E4F1C
:1015A000C8010E94C21BC80160E040E00E94931B7A
:1015B00027EE30E0820E931EF4016081718129E1F3
:1015C0003FEF820E931EC8010E940026C80160E012
:1015D00041E00E94931BC8016EE771E00E94002663
:1015E000BB24B394F401B4821BEAC12ED12CC80CE5
:1015F000D91CF60160817181C40149E050E021E00D
:1016000030E00E945209B7E0EB2EF12CEC0EFD1EEB
:10161000C7016FE871E00E94F726F60160817181D1
:101620008E010F5F1F4FC8014AE00E945927C70172
:10163000B8010E94A726BC0188ED96E00E94D02543
:10164000C8010E94AA27C7010E94B027AEE44A2E13
:10165000512C480C591CF401E655FF4FC401608120
:10166000A20125E030E001E010E00E940705F4014E
:10167000B482C401F201608145E050E021E030E035
:101680000E94C00464EF71E080E090E00E94A42119
:10169000FCE46F2E712C680C791CF601608171815D
:1016A000C40145E050E0930109E010E0E1E0EE2ED6
:1016B000F12C0E942A0AF401B482F3016081718145
:1016C000C40149E050E021E030E00E94520933E1DA
:1016D000E32EF12CEC0EFD1EC70166EA71E00E94BC
:1016E000F7268E01035F1F4FF30160817181C801EE
:1016F0004AE00E945927C701B8010E94A726BC01F1
:1017000088ED96E00E94D025C8010E94AA27C70153
:101710000E94B02764EF71E080E090E00E94A42175
:1017200084010D5D1E4FC4010E947206C8010E9413
:101730004C1A882341F186E496E060E470E0F201FF
:1017400040810E94951A81E490E0B3010E948805CF
:1017500086E496E060E470E00E948E1A2AEA30E0A7
:10176000820E931EF401808326E53FEF820E931EC6
:10177000B40165557F4F81E490E00E94CE05C4011D
:101780000E94EC0405C0C8010E94541A882359F233
:1017900068960FB6F894DEBF0FBECDBFCF91DF9134
:1017A0001F910F91FF90EF90DF90CF90BF909F908F
:1017B0008F907F906F905F904F9008952F923F92FF
:1017C0004F925F926F927F928F929F92AF92BF9251
:1017D000CF92DF92EF92FF920F931F93DF93CF93FD
:1017E000CDB7DEB76E970FB6F894DEBF0FBECDBF94
:1017F0003C015A016B01322E202E37E2432E31E09C
:10180000532E480E591EC201622F402F0E94931B77
:10181000C601B50120E030E040E251E40E94312AE7
:10182000882384F5C201632D402F0E94931BF3018E
:101830008481882311F127E0E22EF12CEC0EFD1EAD
:10184000C70167E771E00E94F7268E010F5F1F4F07
:10185000C801B601A50121E00E942927C701B801EE
:101860000E94A726BC01C2010E949E25C8010E94B9
:10187000AA27C7010E94B02705C0C20169ED71E027
:101880000E940026C601B50120E030E040E251E4AC
:101890000E94E72A88230CF440C0C601B50120E06D
:1018A00030E048EC52E40E94312A8823B4F5C201AA
:1018B000632D422D0E94931BF301848197E2892EB0
:1018C00091E0992E860C971C882311F183E1E82E74
:1018D000F12CEC0EFD1EC70161E271E00E94F726BB
:1018E0008E01035F1F4FC801B601A50121E00E94D0
:1018F0002927C701B8010E94A726BC01C4010E9484
:101900009E25C8010E94AA27C7010E94B02705C0D2
:10191000C40169ED71E00E940026C601B50120E016
:1019200030E048EC52E40E94E72A88232CF1C201FF
:10193000632D422D0E94931BF301848107E2802EC8
:1019400001E0902E860C971C882389F08E01075E9B
:101950001F4FC801B601A50121E00E942927C4013B
:10196000B8010E949E25C8010E94AA2705C0C40193
:1019700069ED71E00E940026F301848191E08927DE
:1019800084836E960FB6F894DEBF0FBECDBFCF91A5
:10199000DF911F910F91FF90EF90DF90CF90BF905C
:1019A000AF909F908F907F906F905F904F903F90FF
:1019B0002F9008952F923F924F925F926F927F9255
:1019C0008F929F92AF92BF92CF92DF92EF92FF924F
:1019D0000F931F93DF93CF93CDB7DEB764970FB606
:1019E000F894DEBF0FBECDBF9E878D873A014B01B5
:1019F00018012901F88AEF86DA8AC98ABC8AAB8A7B
:101A00007C0183E291E0E80EF91E47E0A42EB12CA0
:101A1000AC0EBD1E6E010894C11CD11C41C0C40196
:101A2000B301A20191010E94CD293B014C01C701E4
:101A30000E94641A882381F0C401B301A2019101BC
:101A40000E94E72A882344F0C401B301A201910156
:101A50000E94CC293B014C018D859E85B401A301D8
:101A600029893A890B891C890E94DE0BC5016FED1B
:101A700071E00E94F726C601B401A30121E00E9493
:101A80002927C501B6010E94A726BC0188ED96E072
:101A90000E94D025C6010E94AA27C5010E94B02736
:101AA000C7010E94541A882389F4C7010E945C1A56
:101AB000882361F4C7010E944C1A882339F4C701B6
:101AC0000E946C1A882309F0AACFB1CFEF85F8895C
:101AD000608271828282938264960FB6F894DEBF30
:101AE0000FBECDBFCF91DF911F910F91FF90EF906F
:101AF000DF90CF90BF90AF909F908F907F906F902E
:101B00005F904F903F902F9008958F929F92AF9249
:101B1000BF92CF92DF92EF92FF920F931F93CF93DA
:101B2000DF93EC01B8E48B2E912C880E991EC456DD
:101B3000DF4F488159816A817B81CC59D040CE01E9
:101B400000E010E020E03FE37401CC24DD24A1E0BC
:101B5000AA2EB12C0E94DA0C81E08C83F401408122
:101B6000518162817381CE0120E030E001E010E01C
:101B70000E94DE0B64EF71E080E090E00E94A421FF
:101B8000FCE4CF2ED12CCC0EDD1EC855DF4F688172
:101B90007981C85AD040CE0145E050E0960109E075
:101BA00010E0E1E0EE2EF12C0E942A0A64EF71E0D1
:101BB00080E090E00E94A4218E010D5D1E4FCE01B9
:101BC0000E947206C8010E944C1A8823E1F080E34B
:101BD00090E0B4010E94AC058EE390E0B6010E9453
:101BE0008805BE0164567F4F80E390E00E94F205B5
:101BF000BE0168557F4F8EE390E00E94CE05CE0176
:101C00000E94EC0405C0C8010E94541A8823B9F24E
:101C1000DF91CF911F910F91FF90EF90DF90CF90C8
:101C2000BF90AF909F908F9008958F929F92AF92A8
:101C3000BF92CF92DF92EF92FF920F931F93CF93B9
:101C4000DF93EC01B8E48B2E912C880E991EC856B8
:101C5000DF4F488159816A817B81C859D040CE01CC
:101C600000E010E020E03FE37401CC24DD24A1E09B
:101C7000AA2EB12C0E94DA0C81E08C83F401408101
:101C8000518162817381CE0120E030E001E010E0FB
:101C90000E94DE0B64EF71E080E090E00E94A421DE
:101CA000FCE4CF2ED12CCC0EDD1ECA55DF4F68814F
:101CB0007981C65AD040CE0145E050E0960109E056
:101CC00010E0E1E0EE2EF12C0E942A0A64EF71E0B0
:101CD00080E090E00E94A4218E010D5D1E4FCE0198
:101CE0000E947206C8010E944C1A8823E1F08AE221
:101CF00090E0B4010E94AC058CE390E0B6010E9434
:101D00008805BE0168567F4F8AE290E00E94F20586
:101D1000BE016A557F4F8CE390E00E94CE05CE0154
:101D20000E94EC0405C0C8010E94541A8823B9F22D
:101D3000DF91CF911F910F91FF90EF90DF90CF90A7
:101D4000BF90AF909F908F9008958F929F92AF9287
:101D5000BF92CF92DF92EF92FF920F931F93CF9398
:101D6000DF93EC01B8E48B2E912C880E991ECC5693
:101D7000DF4F488159816A817B81C459D040CE01AF
:101D800000E010E020E03FE37401CC24DD24A1E07A
:101D9000AA2EB12C0E94DA0C81E08C83F4014081E0
:101DA000518162817381CE0120E030E001E010E0DA
:101DB0000E94DE0B64EF71E080E090E00E94A421BD
:101DC000FCE4CF2ED12CCC0EDD1ECC55DF4F68812C
:101DD0007981C45AD040CE0145E050E0960109E037
:101DE00010E0E1E0EE2EF12C0E942A0A64EF71E08F
:101DF00080E090E00E94A4218E010D5D1E4FCE0177
:101E00000E947206C8010E944C1A8823E1F084E205
:101E100090E0B4010E94AC058AE390E0B6010E9414
:101E20008805BE016C567F4F84E290E00E94F20567
:101E3000BE016C557F4F8AE390E00E94CE05CE0133
:101E40000E94EC0405C0C8010E94541A8823B9F20C
:101E5000DF91CF911F910F91FF90EF90DF90CF9086
:101E6000BF90AF909F908F9008958F929F92AF9266
:101E7000BF92CF92DF92EF92FF920F931F93CF9377
:101E8000DF93EC01B8E48B2E912C880E991EC0577D
:101E9000DF4F488159816A817B81C059D040CE0192
:101EA00000E010E020E03FE37401CC24DD24A1E059
:101EB000AA2EB12C0E94DA0C81E08C83F4014081BF
:101EC000518162817381CE0120E030E001E010E0B9
:101ED0000E94DE0B64EF71E080E090E00E94A4219C
:101EE000FCE4CF2ED12CCC0EDD1ECE55DF4F688109
:101EF0007981C25AD040CE0145E050E0960109E018
:101F000010E0E1E0EE2EF12C0E942A0A64EF71E06D
:101F100080E090E00E94A4218E010D5D1E4FCE0155
:101F20000E947206C8010E944C1A8823E1F08EE1DB
:101F300090E0B4010E94AC0588E390E0B6010E94F5
:101F40008805BE0160577F4F8EE190E00E94F20548
:101F5000BE016E557F4F88E390E00E94CE05CE0112
:101F60000E94EC0405C0C8010E94541A8823B9F2EB
:101F7000DF91CF911F910F91FF90EF90DF90CF9065
:101F8000BF90AF909F908F9008956F927F928F92A5
:101F90009F92AF92BF92CF92DF92EF92FF920F93F8
:101FA0001F93DF93CF93CDB7DEB768970FB6F89442
:101FB000DEBF0FBECDBF4C0118E4612E712C680E40
:101FC000791E8CE890E0880E991EF40140815181C1
:101FD0006281738184E79FEF880E991EC40100E03F
:101FE00010E020E03FE37301CC24DD24B1E0AB2E10
:101FF000B12C0E94DA0C81E0F4018483F30140816A
:10200000518162817381C40120E030E001E010E081
:102010000E94DE0BA7E0EA2EF12CEC0EFD1EC7019C
:102020006DEE71E00E94F726F301408151816281DB
:1020300073818E010F5F1F4FC80122E00E94292784
:10204000C701B8010E94A726BC0188ED96E00E9456
:10205000D025C8010E94AA27C7010E94B02764EFBB
:1020600071E080E090E00E94A421FCE4CF2ED12C0E
:10207000C80CD91C80EA90E0880E991EF40160819A
:10208000718180E69FEF880E991EC40145E050E003
:10209000960109E010E0E1E0EE2EF12C0E942A0A00
:1020A00013E1E12EF12CEC0EFD1EC70168E072E099
:1020B0000E94F7268E01035F1F4FF6016081718138
:1020C000C8014AE00E945927C701B8010E94A7260B
:1020D000BC0188ED96E00E94D025C8010E94AA2785
:1020E000C7010E94B02764EF71E080E090E00E9499
:1020F000A42184010D5D1E4FC4010E947206C80117
:102100000E944C1A8823E1F088E190E0B3010E941C
:10211000AC0586E390E0B6010E948805B4016457DF
:102120007F4F88E190E00E94F205B40160567F4F36
:1021300086E390E00E94CE05C4010E94EC0405C035
:10214000C8010E94541A8823B9F268960FB6F89411
:10215000DEBF0FBECDBFCF91DF911F910F91FF90DA
:10216000EF90DF90CF90BF90AF909F908F907F9037
:102170006F9008952F923F924F925F926F927F924D
:102180008F929F92AF92BF92CF92DF92EF92FF9287
:102190000F931F93DF93CF93CDB7DEB7E4970FB6BE
:1021A000F894DEBF0FBECDBF7C0160E070E046E07A
:1021B00050E00E945407019798A38F8FC70160E0F9
:1021C00070E041E050E021E00E94B00753E2852E2C
:1021D00051E0952E8E0C9F1C47E2A42E41E0B42EB8
:1021E000AE0CBF1C31E0C32ED12C2DE0222E312CA1
:1021F0002C0E3D1E99E1492E512C4C0E5D1E83E1A3
:10220000682E712C6C0E7D1EC7018C569F4F9AA3B1
:1022100089A3F701EC55FF4FFCA3EBA3C701885638
:102220009F4F9EA38DA3F701EA55FF4FF8A7EFA399
:10223000C70184569F4F9AA789A7F701E855FF4F1A
:10224000FCA7EBA7C70184579F4F9EA78DA7F70157
:10225000E056FF4FF8ABEFA7C70180579F4F9AABEF
:1022600089ABF701EE55FF4FFCABEBAB53C1C4019B
:102270000E946C1A882371F0F2E0CF16D10454F05A
:102280000894C108D108C70160E070E0A60121E010
:102290000E94B007C4010E94641A882379F08F8DD0
:1022A00098A1C816D90654F40894C11CD11CC701C2
:1022B00060E070E0A60120E00E94B007CE01079622
:1022C00061E272E00E94F726CE010196B6014AE073
:1022D0000E945927CE010796BE016F5F7F4F0E9473
:1022E000A72660E572E00E948B268C01C1016F8DEC
:1022F00078A14AE00E945927C801B1010E94A7268F
:10230000BC0188ED96E00E94D025C1010E94AA2759
:10231000CE0101960E94AA27CE0107960E94B027FF
:10232000C4010E944C1A882309F4F4C0C5010E941C
:10233000C21BC50160E040E00E94931BF601EE0F56
:10234000FF1FEE0DFF1DE552FF4F60817181C5013A
:102350000E940026C50160E041E00E94931BC50178
:102360006FE572E00E940026C20160E772E00E9401
:10237000F726C301B6014AE00E945927C201B30102
:102380000E94A726BC0188ED96E00E94D025C301DB
:102390000E94AA27C2010E94B027C601019782307D
:1023A000910509F44FC08330910534F4009761F032
:1023B000019709F0AFC027C08330910509F461C0CF
:1023C000049709F0A7C081C0EDA5FEA54081518109
:1023D00062817381C70120E030E001E010E00E94DB
:1023E000DE0B81E0F7018483EFA5F8A9608171819C
:1023F000C70149E050E021E030E00E945209C701E6
:102400000E94C50F5CC0E9A9FAA94081518162818F
:102410007381C70120E030E001E010E00E94DE0B94
:1024200081E0F7018483EBA9FCA960817181C70178
:1024300049E050E021E030E00E945209C7010E94CB
:10244000350F3DC0E9A1FAA14081518162817381BC
:10245000C70120E030E001E010E00E94DE0B81E0E7
:10246000F7018483EBA1FCA160817181C70149E080
:1024700050E021E030E00E945209C7010E94A50E01
:102480001EC0EDA1FEA14081518162817381C7010F
:1024900020E030E001E010E00E94DE0B81E0F70177
:1024A0008483EFA1F8A560817181C70149E050E004
:1024B00021E030E00E945209C7010E94150EC701B9
:1024C00060E070E0A60121E023C0E9A5FAA5408103
:1024D000518162817381C70120E030E001E010E0AA
:1024E0000E94DE0B81E0F7018483EBA5FCA56081EF
:1024F0007181C70149E050E021E030E00E945209BB
:10250000C7010E94850DC70160E070E0A60120E0D0
:102510000E94B007C4010E945C1A882309F4A7CE68
:10252000E4960FB6F894DEBF0FBECDBFCF91DF911A
:102530001F910F91FF90EF90DF90CF90BF90AF90E1
:102540009F908F907F906F905F904F903F902F90D3
:1025500008958F929F92AF92BF92CF92DF92EF92A7
:10256000FF920F931F93CF93DF937C016B01B7E230
:10257000AB2EB1E0BB2EA80EB91EC5010E94C21B36
:10258000C50160E040E00E94931B8701095A1F4F7C
:10259000C501F80160810E94571BF601EE0FFF1F75
:1025A000EC0DFD1DEE0FFF1FEE0FFF1FEE0DFF1DCB
:1025B000E552FF4F60817181C5010E940026C5016F
:1025C00060E041E00E94931BC6010196FC01EE0F02
:1025D000FF1FE80FF91FEE0FFF1FEE0FFF1FEE0D9D
:1025E000FF1DE552FF4F60817181C5010E940026E9
:1025F00043E2842E41E0942E8E0C9F1C0FC1C40137
:102600000E946C1A8823E1F11C141D04CCF5E6012C
:102610002197C5010E94C21BC50160E040E00E94F5
:10262000931BC501F80160810E94571BFE01EE0F4C
:10263000FF1FEC0FFD1FEE0FFF1FEE0FFF1FEE0D34
:10264000FF1DE552FF4F60817181C5010E94002688
:10265000C50160E041E00E94931BF601EE0FFF1FF1
:10266000EC0DFD1DEE0FFF1FEE0FFF1FEE0DFF1D0A
:10267000E552FF4F60817181C5010E94002601C0B3
:10268000E601C4010E94641A8823F1F1C530D10526
:10269000DCF56E010894C11CD11CC5010E94C21B4F
:1026A000C50160E040E00E94931BFE01EE0FFF1F9A
:1026B000EC0FFD1FEE0FFF1FEE0FFF1FEE0DFF1DB6
:1026C000E552FF4F60817181C5010E940026C5015E
:1026D00060E041E00E94931BC501F80160810E9407
:1026E000571BF601EE0FFF1FEC0DFD1DEE0FFF1F38
:1026F000EE0FFF1FEE0DFF1DE552FF4F6081718150
:10270000C5010E94002601C06E01C4010E944C1A3E
:10271000882389F0C114D10471F488ED96E060EA51
:1027200072E00E940326C7010E94BA10C70160E050
:1027300070E00E94A912C4010E944C1A882391F0F3
:10274000F1E0CF16D10471F488ED96E069EB72E008
:102750000E940326C7010E94B50AC70161E070E02C
:102760000E94A912C4010E944C1A882391F082E0B1
:10277000C816D10471F488ED96E065ED72E00E9410
:102780000326C7010E944E08C70162E070E00E9464
:10279000A912C4010E944C1A882391F0E3E0CE16DE
:1027A000D10471F488ED96E06CEE72E00E9403268D
:1027B000C7010E944608C70163E070E00E94A912A9
:1027C000C4010E944C1A882391F0F4E0CF16D10482
:1027D00071F488ED96E063E073E00E940326C70180
:1027E0000E943E08C70164E070E00E94A912C40183
:1027F0000E944C1A882391F085E0C816D10471F428
:1028000088ED96E06CE173E00E940326C7010E9408
:102810003608C70165E070E00E94A912C4010E9459
:102820005C1A882309F4EBCEDF91CF911F910F91B1
:10283000FF90EF90DF90CF90BF90AF909F908F90E0
:102840000895CF92DF92EF92FF920F931F93CF9351
:10285000DF93EC01D62EC42E862F0E94F7228C0126
:102860008C2D0E94F7227C01CD5DDE4FCE010E94AF
:102870006C1A882341F060E00115110509F461E04C
:102880008D2D0E94A322CE010E94641A882341F05C
:1028900060E0E114F10409F461E08C2D0E94A322B0
:1028A000012B19F000E010E002C008E010E0EF2872
:1028B00019F0C0E0D0E002C0C4E0D0E064E670E00F
:1028C00080E090E00E94A4219E01202B312BC901C1
:1028D000DF91CF911F910F91FF90EF90DF90CF90FC
:1028E00008952F923F924F925F926F927F928F92B4
:1028F0009F92AF92BF92CF92DF92EF92FF920F938F
:102900001F93DF93CF93CDB7DEB764970FB6F894DC
:10291000DEBF0FBECDBF9C8B8B8B0E94380603E2BF
:10292000802E01E0902E8B899C89880E991E13E1E0
:10293000212E312C280E391E86969E878D87AB89D5
:10294000BC899E96BC87AB87EB89FC89F696FA8793
:10295000E9878B899C89855A9F4F988B8F87AB8994
:10296000BC89AA5BBF4FBA8BA98BC4010E946C1AA9
:10297000882321F08B899C890E94B206C4010E94A1
:10298000641A882321F08B899C890E940307C40163
:102990000E944C1A882309F470C0EF85F889808161
:1029A0009181892B09F069C088ED96E065E373E0B9
:1029B0000E94032680E090E0A0E0B0E08D839E833B
:1029C000AF83B88789839A83AB83BC832C013D0195
:1029D0004AC0C1016D857E850E94731E882349F01F
:1029E000C1016D857E850E941B1E6D837E838F8352
:1029F0009887C1016B857C850E94731E882349F0EE
:102A0000C1016B857C850E941B1E69837A838B8341
:102A10009C83C10169857A850E94731E882339F0E1
:102A2000C10169857A850E941B1E2B013C01AB897F
:102A3000BC89DE966D917C91DF97E989FA894081A6
:102A40005181CD010E9421145C018B899C894D81AB
:102A50005E816F81788509811A812B813C817301A8
:102A600062010E945608C4010E945C1A882309F47E
:102A7000B0CF8B899C890E943806C4010E944C1AF1
:102A80008823B1F0AF85B8898D919C91019781F42D
:102A900088ED96E06DE473E00E9403268B899C89A3
:102AA00060E070E00E94A9128B899C890E94380620
:102AB000C4010E944C1A882361F0EF85F889808157
:102AC0009181029731F488ED96E062E673E00E940E
:102AD0000326C4010E944C1A882309F446CFAF850F
:102AE000B8898D919C91039709F03FCF88ED96E0CE
:102AF0006EE773E00E94032638CF2F923F924F92E9
:102B00005F926F927F928F929F92AF92BF92CF927D
:102B1000DF92EF92FF920F931F93DF93CF93CDB786
:102B2000DEB762970FB6F894DEBF0FBECDBF9C83B1
:102B30008B832B01142FF22E2FA1298BD8A439A51A
:102B40003A8B6BA53C0185E090E0680E791EC301CD
:102B50000E941821EB81FC817396FA83E983CF01EF
:102B6000B3010E94B91C8B819C818D5D9E4FB20187
:102B700042E350E00E94741A6B807C8027E231E0CF
:102B8000620E731EC301612F4F2D202F0E2DEC2CD2
:102B9000CA2C0E94801CEB81FC8180829182298951
:102BA0002283D3828DA59EA597AF86AFE05CFF4FB1
:102BB0008FA598A98193919389A99AA981939193BB
:102BC0008BA99CA9819391938DA99EA991838083C0
:102BD000E654F040FC83EB83E15BFF4FFE83ED8323
:102BE000118210828B819C81835A9F4F98878F839B
:102BF000FC0110822B813C81225A3F4F3C832B8366
:102C000034E0EB81FC8131932EE021934FE141933D
:102C1000119211921082E356F040FC83EB83EF5A3D
:102C2000FF4FFA87E98781E090E0918380838B8171
:102C30009C818C599F4F9C878B87FC0110828B81D4
:102C40009C818B599F4FFC011192119241932193CA
:102C500031931082EA56F040FC83EB83ED5AFF4F2C
:102C6000FE87ED8782E090E0918380832B813C8119
:102C700024593F4F388B2F8731E0EF85F889308317
:102C80008B819C8183599F4F23E0FC01219397E026
:102C900091938FE08193919321933083E257F04099
:102CA000FC83EB831F0125E530E0220E331E83E019
:102CB00090E0F101918380834B805C8024E730E0D9
:102CC000420E531E90E1F20190832B813C812B58E0
:102CD0003F4F3C832B8338E1EB81FC8131932CE126
:102CE00021938EE18193219331939083EA57F040B1
:102CF000FC83EB835F0187E590E0A80EB91E84E0BA
:102D000090E0F50191838083CB80DC808CE790E0BC
:102D1000C80ED91EF60130838B819C8183589F4F4A
:102D2000FC0121939AE1919389E1819391932193FD
:102D30003083E258F040FC83EB837F0129E530E0EB
:102D4000E20EF31E85E090E0F701918380830B8112
:102D50001C810C571F4FF80110822B813C812B578F
:102D60003F4FF90111924193419341931192108287
:102D7000BF97FC83EB83118210828A8961E00E94F5
:102D800064228A8961E00E94A322C301ED81FE8151
:102D900060814F8158850E94611BC301E985FA85D6
:102DA00060814B855C850E94611BC301ED85FE85BA
:102DB00060814F8558890E94611BC301F1016081C8
:102DC000A2010E94611BC301F5016081A6010E945E
:102DD000611BC301F7016081A8010E94611BC3014F
:102DE000682D498920E00E94CA1BC3010E94C21BB2
:102DF00089819A810E94CA1E2B813C812E583F4FA7
:102E00008CE993E0F901819391938BEA93E08193AC
:102E1000919383EB93E0819391938FEB93E0819374
:102E200091938DEC93E08193919385ED93E0819361
:102E300091938EED93E08193919386EE93E081934D
:102E400091938FEE93E0819391938EEF93E0819332
:102E500091938EE094E0819391938EE194E081933D
:102E600091938DE294E0819391938CE394E091832C
:102E700080833C9688E494E0819391938FE494E07E
:102E80008193919386E694E091838083389687E7D7
:102E900094E0819391938EE794E0819391938FE8EE
:102EA00094E08193919385EA94E0918380833696B0
:102EB0008BEB94E08193919385EC94E091838083F4
:102EC0003A9689ED94E091838083E751F140FC8349
:102ED000EB83BF016A5D7F4F80E090E00E941506A2
:102EE0006B817C81625D7F4F88E090E00E941506D7
:102EF0006B817C816A5C7F4F80E190E00E941506C7
:102F00000B811C8104571F4F88E190E0B8010E949B
:102F1000F2052B813C8120573F4F3C832B838EE170
:102F200090E0B9010E94F2058B819C8104969C83FC
:102F30008B8384E290E06B817C810E94F205EB81BF
:102F4000FC813496FC83EB838AE290E0BF010E940F
:102F5000F2052B813C812C5F3F4F3C832B8380E328
:102F600090E0B9010E94F2058B819C8104969C83BC
:102F70008B8386E390E06B817C810E94CE05EB81A0
:102F8000FC813296FC83EB8388E390E0BF010E94D2
:102F9000CE052B813C812E5F3F4F3C832B838AE300
:102FA00090E0B9010E94CE058B819C8102969C83A2
:102FB0008B838CE390E06B817C810E94CE05EB815A
:102FC000FC813296FC83EB838EE390E0BF010E948C
:102FD000CE0586E496E060E470E00E948E1A2B81B4
:102FE0003C812E5F3F4FF9018083EA5AF040FC8319
:102FF000EB83BF0165557F4F81E490E00E94CE05D1
:10300000F8012081318142815381CA01B9010E94B6
:103010004E2B882349F080E090E0A5E8B2E4F80167
:1030200080839183A283B3830B811C8100571F4F40
:10303000F8012081318142815381CA01B9010E9486
:103040004E2B882349F080E090E0A5E8B2E4F80137
:1030500080839183A283B3830B811C810C561F4F05
:10306000F8012081318142815381CA01B9010E9456
:103070004E2B882349F080E090E0A5E8B2E4F80107
:1030800080839183A283B3830B811C8108561F4FD9
:10309000F8012081318142815381CA01B9010E9426
:1030A0004E2B882349F080E090E0A5E8B2E4F801D7
:1030B00080839183A283B3830B811C8104561F4FAD
:1030C000F8012081318142815381CA01B9010E94F6
:1030D0004E2B882349F080E090E0A5E8B2E4F801A7
:1030E00080839183A283B3832B813C8120563F4F01
:1030F000F90180809180E05AF040FC83EB83CC247E
:10310000DD24B401882777FD8095982F0E94372A07
:103110007B018C01E89417F9C801B7012FEF3FEF4D
:103120004FE75FE70E944E2B882351F4C801B70197
:103130002FEF3FEF4FE75FE70E94312A18161CF090
:1031400051E0C52ED12CF1E0CF16D10411F497FE39
:103150000DC02B813C8120563F4F8AE590E0F9015C
:1031600091838083E05AF040FC83EB832B813C8188
:103170002E553F4FF90180809180E25AF040FC8348
:10318000EB83CC24DD24B401882777FD8095982F2C
:103190000E94372A7B018C01E89417F9C801B70116
:1031A0002FEF3FEF4FE75FE70E944E2B882351F44C
:1031B000C801B7012FEF3FEF4FE75FE70E94312AC9
:1031C00018161CF041E0C42ED12CF1E0CF16D1042A
:1031D00011F497FE0BC02B813C812E553F4FF90116
:1031E00011821082E25AF040FC83EB832B813C81F8
:1031F0002C553F4FF90180809180E45AF040FC83C8
:10320000EB83CC24DD24B401882777FD8095982FAB
:103210000E94372A7B018C01E89417F9C801B70195
:103220002FEF3FEF4FE75FE70E944E2B882351F4CB
:10323000C801B7012FEF3FEF4FE75FE70E94312A48
:1032400018161CF031E0C32ED12CF1E0CF16D104BA
:1032500011F497FE0BC02B813C812C553F4FF90197
:1032600011821082E45AF040FC83EB832B813C8175
:103270002A553F4FF90180809180E65AF040FC8347
:10328000EB83CC24DD24B401882777FD8095982F2B
:103290000E94372A7B018C01E89417F9C801B70115
:1032A0002FEF3FEF4FE75FE70E944E2B882351F44B
:1032B000C801B7012FEF3FEF4FE75FE70E94312AC8
:1032C00018161CF021E0C22ED12CF1E0CF16D1044B
:1032D00011F497FE0BC02B813C812A553F4FF90119
:1032E00011821082E65AF040FC83EB832B813C81F3
:1032F00028553F4FF90180809180E85AF040FC83C7
:10330000EB83CC24DD24B401882777FD8095982FAA
:103310000E94372A7B018C01E89417F9C801B70194
:103320002FEF3FEF4FE75FE70E944E2B882351F4CA
:10333000C801B7012FEF3FEF4FE75FE70E94312A47
:1033400018161CF091E0C92ED12CF1E0CF16D10453
:1033500011F497FE0BC02B813C8128553F4FF9019A
:1033600011821082E85AF040FC83EB832B813C8170
:1033700025553F4FF90180809180EB5AF040FC8346
:10338000EB83CC24DD24B401882777FD8095982F2A
:103390000E94372A7B018C01E89417F9C801B70114
:1033A0002FEF3FEF4FE75FE70E944E2B882351F44A
:1033B000C801B7012FEF3FEF4FE75FE70E94312AC7
:1033C00018161CF081E0C82ED12CF1E0CF16D104E4
:1033D00011F497FE07C02B813C8125553F4FF90121
:1033E0001182108262960FB6F894DEBF0FBECDBF79
:1033F000CF91DF911F910F91FF90EF90DF90CF90D1
:10340000BF90AF909F908F907F906F905F904F9004
:103410003F902F9008950F931F93CF93DF938C01CC
:10342000FC0180810E944222EC01F80162817381DB
:10343000882777FD8095982F0E94A421F3E0C93E4C
:10344000DF071CF020E030E021C0C233D1051CF4BE
:1034500023E030E01BC0C33CD1051CF424E030E085
:1034600015C081E0CC37D8071CF425E030E00EC051
:10347000E2E0CB32DE071CF422E030E007C020E0BF
:1034800030E0C651D34014F421E030E0C901DF91AF
:10349000CF911F910F9108950E940B1A20E003977E
:1034A00009F421E0822F08950E940B1A20E0029770
:1034B00009F421E0822F08950E940B1A20E0019761
:1034C00009F421E0822F08950E940B1A20E005974D
:1034D00009F421E0822F08950E940B1A20E004973E
:1034E00009F421E0822F0895CF92DF92EF92FF92AC
:1034F0000F931F938C01D62EC72E7A01862F60E082
:103500000E946422F801D082C182F382E2821F917C
:103510000F91FF90EF90DF90CF900895F999FECF33
:1035200072BD61BDF89A80B50895F999FECF1FBAB2
:1035300072BD61BD40BD0FB6F894FA9AF99A0FBEFC
:1035400008950F931F938C01FC01868160E00E9417
:10355000A32281E090E00E94FD21F801868161E0D4
:103560000E94A32281E090E00E94FD21F801868163
:1035700060E00E94A32284E690E00E94FD211F915A
:103580000F910895CF92DF92EF92FF920F931F93C6
:10359000CF93DF93D82EC92E282F392FC9018C0144
:1035A000C0E0D0E0E62EFF24F801878161E00E94B0
:1035B0006422B7010C2E02C0759567950A94E2F754
:1035C0006170F80187810E94A32221960F5F1F4F2F
:1035D000C830D10549F78D2D9C2D0E94A11ADF918D
:1035E000CF911F910F91FF90EF90DF90CF900895B2
:1035F000CF92DF92EF92FF920F931F93CF93DF93BF
:10360000D82EC92E282F392FC9018C01C0E0D0E057
:10361000E62EFF24F801878161E00E946422B70151
:103620000C2E02C0759567950A94E2F76170F80157
:1036300087810E94A32221960F5F1F4FC430D105BE
:1036400049F78D2D9C2D0E94A11ADF91CF911F91DA
:103650000F91FF90EF90DF90CF9008951F93CF933D
:10366000DF93EC01162F8C81642F0E94A3228D81A1
:103670008F3F19F060E00E94A3228F8584FF05C070
:10368000CE01612F0E94C21A0EC0612F70E084E04B
:10369000759567958A95E1F7CE010E94F81ACE01DB
:1036A000612F0E94F81ADF91CF911F91089541E098
:1036B0000E942E1B81E090E0089540E00E942E1BA6
:1036C0000895EF92FF920F931F93CF93DF938C0196
:1036D0007A016770660F660F660F60640E945D1B5B
:1036E000C0E0D0E0D801ED91FC91D701AC0FBD1F37
:1036F0000190F081E02DC8016C9109952196C830A8
:10370000D10581F7DF91CF911F910F91FF90EF903D
:103710000895FC016089862F8460808B6C60CF01E6
:103720000E945D1B0895DF93CF93CDB7DEB7289736
:103730000FB6F894DEBF0FBECDBF9C01FE013196DF
:10374000A1EFB4E088E00D9001928150E1F7F9011A
:103750008389481710F0482F4150E42FF0E0EE0F16
:10376000FF1FEC0FFD1F8181680F6068C9010E9477
:103770005D1B28960FB6F894DEBF0FBECDBFCF916C
:10378000DF91089561E00E945D1B80ED97E00E944B
:10379000FD210895CF93DF93EC01423018F08F851F
:1037A00088608F874B8B1C8A222329F0413019F4C3
:1037B0008F8584608F8780E593EC0E94FD218C814A
:1037C00060E00E94A3228E8160E00E94A3228D818E
:1037D0008F3F19F060E00E94A3226F8564FD1DC039
:1037E000CE0163E00E94F81A84E991E10E94FD2174
:1037F000CE0163E00E94F81A84E991E10E94FD2164
:10380000CE0163E00E94F81A86E990E00E94FD2153
:10381000CE0162E00E94F81A16C06062CE010E94DA
:103820005D1B84E991E10E94FD216F856062CE01FC
:103830000E945D1B86E990E00E94FD216F85606219
:10384000CE010E945D1B6F856062CE010E945D1BF0
:1038500084E0888BCE010E94891BCE010E94C21B8E
:1038600082E0898BCE0166E00E945D1BDF91CF91E3
:1038700008956F927F928F92AF92CF92EF920F93B3
:103880001F93DF93CF93CDB7DEB73C01162F842F64
:10389000F301448325830683E782C086A18682865E
:1038A0009D8593879E8594879F8595879889968720
:1038B00061E00E946422F30185818F3F19F061E08D
:1038C0000E946422F301868161E00E946422112338
:1038D00019F0F301178603C080E1F3018787C30164
:1038E00060E141E020E00E94CA1BCF91DF911F916F
:1038F0000F91EF90CF90AF908F907F906F90089541
:103900008F92AF92CF92EF920F931F93CF93DF934B
:10391000DC01362F542F722F102FAE2C8C2C1396C7
:103920001C921E9212978DEE94E011969C938E93AA
:1039300000D000D0EDB7FEB73196CDB7DEB7198213
:10394000118212821382CD0161E0432F2FEF052FE8
:10395000E72EC12E0E94391C0F900F900F900F90F0
:10396000DF91CF911F910F91EF90CF90AF908F90FB
:103970000895FC0188EC9CE1928B818B76836583B2
:103980001482108289E0818381E082838383089599
:103990000895EF92FF920F931F938C017B01FC011E
:1039A000858196810E943720F80185819681B70133
:1039B0000E941620F8018581968164EB40E00E9408
:1039C000D61FF801858196810E94511FF82EF801BB
:1039D000858196810E94372080E0FF2009F481E0F4
:1039E0001F910F91FF90EF900895CF92DF92EF9289
:1039F000FF920F931F938C016B017A01FC0185816B
:103A000096810E943720F80185819681B6010E9437
:103A10001620F801858196816EEB40E00E94D61F4A
:103A2000F801858196810E94851FF7018083F80146
:103A3000858196810E94851FF7018183F801858128
:103A400096810E94851FF7018283F8018581968106
:103A50000E94851FF7018383F801858196810E946A
:103A6000851FF7018483F801858196810E94851F57
:103A7000F7018583F801858196810E94851FF701F2
:103A80008683F801858196810E94851FF7018783CF
:103A9000F801858196810E94851FF7018087F801D2
:103AA000858196810E9437201F910F91FF90EF90A2
:103AB000DF90CF900895DF93CF93CDB7DEB72997EE
:103AC0000FB6F894DEBF0FBECDBFAE014F5F5F4FA4
:103AD0000E94F51C8981811181E029960FB6F89426
:103AE000DEBF0FBECDBFCF91DF910895AF92BF92E1
:103AF000CF92DF92EF92FF920F931F93CF93DF93BA
:103B00006C015A01693051F0693070F06A3019F077
:103B10006B3051F406C0CCEBD0E008C0CEE5D0E06D
:103B200005C0C7E7D1E002C0CEEED2E0A114B104D7
:103B300011F1F60183818823F1F080818823D9F483
:103B40000E9496217B018C01CE01AA2797FDA095AA
:103B5000BA2FE80EF91E0A1F1B1FC601B5010E94ED
:103B60005B1D882379F40E9496216E157F058007DE
:103B7000910740F4F2CFBE01882777FD8095982FFA
:103B80000E94A421DF91CF911F910F91FF90EF90A0
:103B9000DF90CF90BF90AF9008950F931F938A014D
:103BA0000E94F51CC80168E00E94401F20E0F80157
:103BB0009085891709F421E0822F1F910F910895B4
:103BC0000F931F93DF93CF93CDB7DEB729970FB62F
:103BD000F894DEBF0FBECDBF8B01AE014F5F5F4FCC
:103BE0000E94CD1D882319F440E158EF18C09A8136
:103BF00080E02981422F50E0482B592BF801808129
:103C0000803169F42F818CE090E0821B91094E7F16
:103C100073E0440F551F7A95E1F7480F591FCA0109
:103C200029960FB6F894DEBF0FBECDBFCF91DF91BE
:103C30001F910F9108950E94E01D9C0188EF213192
:103C400038072CF4E0E070E08EEF62EC0FC0B901B1
:103C5000882777FD8095982F0E94372A20E030E052
:103C600040E85DE30E94EB2AE62F692F2E2F372FC5
:103C7000482F562FB901CA010895DF93CF93CDB7CE
:103C8000DEB729970FB6F894DEBF0FBECDBF9C01FB
:103C9000FB0180818031D9F0C901AE014F5F5F4FD8
:103CA0000E94CD1D8823A9F08D818F3361F080346F
:103CB00018F48F3171F409C08F3519F08F3749F43A
:103CC00006C08BE007C08AE005C089E003C08CE035
:103CD00001C080E029960FB6F894DEBF0FBECDBFBD
:103CE000CF91DF910895EF92FF920F931F93DF938F
:103CF000CF93CDB7DEB729970FB6F894DEBF0FBECE
:103D0000CDBF8C017B01FC01858196810E9437200B
:103D1000F80185819681B7010E941620F8018581FE
:103D2000968164E440810E94D61FC801B701AE01AC
:103D30004F5F5F4F0E94CD1D882371F0F801828193
:103D4000882349F0C801B7010E943D1E682FC801B1
:103D5000A7010E94761D81E029960FB6F894DEBF78
:103D60000FBECDBFCF91DF911F910F91FF90EF90CC
:103D700008950F931F938B01CB0167E00E94401FB2
:103D800020E0F8019781891709F421E0822F1F9123
:103D90000F910895AF92BF92CF92DF92EF92FF9270
:103DA0000F931F93DF93CF93CDB7DEB761970FB615
:103DB000F894DEBF0FBECDBF7C01FC0185819681EA
:103DC0000E94331FF70114826E010894C11CD11C9C
:103DD000E9E0AE2EB12CAC0EBD1E01E02BC0C70138
:103DE000B6010E94B91E882329F1F701808188233A
:103DF00041F4C701B6010E94C91C882311F0F701E4
:103E00000083C701B601A5010E94F51CF7011181CD
:103E1000C701B6010E943D1E811718F4F701818188
:103E200004C0C701B6010E943D1EF7018183848151
:103E30008F5F8483F70185819681B6010E9482207D
:103E4000882369F661960FB6F894DEBF0FBECDBF2A
:103E5000CF91DF911F910F91FF90EF90DF90CF9066
:103E6000BF90AF900895FC0113861586148687E0F5
:103E700090E012863197009711F00197FACF0895DC
:103E8000DC0180E00BC0E82FF0E08D9190E0E827A6
:103E9000F927E859FF4FE49161508E2F662399F777
:103EA0000895DF92EF92FF920F931F93FC01E08041
:103EB00001811281F894F80181818E2981838281A8
:103EC000DE2CD0948D21828383E090E00E94FD213E
:103ED000F80181818D2181838AE090E00E94FD219B
:103EE000F8010081789485E390E00E94FD2180E054
:103EF00010E0FF240E211F21012B09F081E01F910A
:103F00000F91FF90EF90DF900895EF92FF920F9343
:103F10001F93CF93DF937C0101E010E0C0E0D0E07D
:103F2000C7010E94511F8111102B000F2196C8302C
:103F3000D105B1F7812FDF91CF911F910F91FF90A4
:103F4000EF9008951F93CF93DF93FC011081C181FF
:103F5000D281912F909560FF12C0F8948A818923B5
:103F60008A838981812B89838AE090E00E94FD21E8
:103F70008A81812B8A83789487E390E011C0F8943A
:103F80008A8189238A838981812B898381E490E0D6
:103F90000E94FD218A81812B8A83789485E090E0BC
:103FA0000E94FD21DF91CF911F910895CF92DF9262
:103FB000EF92FF920F931F93CF93DF938C01E42E28
:103FC000FF24F394C0E0D0E0C62EDD2460E08F2D06
:103FD00090E08C219D21892B09F061E0C8010E94AD
:103FE000A21FFF0C2196C830D10581F7EE20A9F45D
:103FF000F894D8011196ED91FC91129791818C91D2
:104000008095982391831196ED91FC91129792815E
:104010008C918095982392837894DF91CF911F9112
:104020000F91FF90EF90DF90CF900895EF92FF9265
:104030000F931F93CF93DF938C017B0165E540E0E5
:104040000E94D61FC0E0D0E0F701EC0FFD1FC801B1
:10405000608140E00E94D61F2196C830D105A1F7AB
:10406000DF91CF911F910F91FF90EF900895DF9214
:10407000EF92FF920F931F93CF93DF93FC01008188
:10408000C181D281F8948981D02ED0948D218983E9
:1040900078941DE7E02EFF24115059F182E090E062
:1040A0000E94FD21888190E08E219F21892BA1F320
:1040B000F8948A818D218A838981802B89837894E1
:1040C00080EE91E00E94FD21F89489818D21898301
:1040D00086E490E00E94FD21888110E090E0E822D3
:1040E000F922EF2809F411E078948AE991E00E941E
:1040F000FD21812FDF91CF911F910F91FF90EF90C4
:10410000DF900895AF92BF92DF92EF92FF920F93EC
:104110001F93CF93DF93EC015B018D85882309F01A
:1041200061C0CE010E943720882329F41B861D869A
:104130001C8690E06BC0CE0160EF40E00E94D61F6D
:1041400001E0DD24EE24FF24F394CE010E94511FF0
:10415000182FCE010E94511F113019F48130E1F463
:1041600039C0181709F58B85081770F460E0FE0157
:10417000EE0DF11D838190E02F2D30E082239323FB
:10418000181619064CF003C060E0081729F0093032
:1041900008F04CC00C874AC0FE01EE0DF11D838172
:1041A0008F29838361E009C0612FFE01EE0DF11DAF
:1041B0009F2D9095838189238383CE010E94A21F26
:1041C0000F5FFF0C19F4E394FF24F39487E08E153E
:1041D00008F0BBCF013430F0DB86DD2011F581E043
:1041E0008D871FC01B861D861C8690E0DE0120E0A7
:1041F00030E0F501E20FF31F13968C911397808343
:104200002F5F3F4F11962830310599F7892FDF91A5
:10421000CF911F910F91FF90EF90DF90BF90AF90E3
:1042200008958B818823F1F291E0E0CFD02EBDCFAD
:10423000FF920F931F938C01F62E862F60E00E9451
:1042400064228F2D90E0FC01E656FE4FE491D801E8
:10425000EC938A579E4FFC016491E62FF0E0EE0F3D
:10426000FF1FE458FE4F8591949112969C938E9374
:1042700011971B961C921B971D961C921D971C96BE
:104280001C92F80187E090E012863197009711F0B8
:104290000197FACF1F910F91FF9008951F920F92EF
:1042A0000FB60F9211242F933F938F939F93AF9349
:1042B000BF9380914B0690914C06A0914D06B09112
:1042C0004E0630914F060196A11DB11D232F2D5F83
:1042D0002D3720F02D570196A11DB11D20934F06BB
:1042E00080934B0690934C06A0934D06B0934E06D8
:1042F0008091470690914806A0914906B0914A06E0
:104300000196A11DB11D8093470690934806A09386
:104310004906B0934A06BF91AF919F918F913F910B
:104320002F910F900FBE0F901F9018958FB7F89494
:1043300020914B0630914C0640914D0650914E060F
:104340008FBFB901CA0108959B01AC017FB7F894F2
:104350008091470690914806A0914906B0914A067F
:1043600066B5A89B05C06F3F19F00196A11DB11D50
:104370007FBFBA2FA92F982F8827860F911DA11DC7
:10438000B11D62E0880F991FAA1FBB1F6A95D1F764
:10439000BC012DC0FFB7F894809147069091480664
:1043A000A0914906B0914A06E6B5A89B05C0EF3F2B
:1043B00019F00196A11DB11DFFBFBA2FA92F982F8B
:1043C00088278E0F911DA11DB11DE2E0880F991F56
:1043D000AA1FBB1FEA95D1F7861B970B885E9340F7
:1043E000C8F2215030404040504068517C4F211568
:1043F00031054105510571F60895019739F0880F8F
:10440000991F880F991F02970197F1F708957894E3
:1044100084B5826084BD84B5816084BD85B58260C9
:1044200085BD85B5816085BDEEE6F0E08081816067
:104430008083E1E8F0E01082808182608083808167
:1044400081608083E0E8F0E0808181608083E1EB3F
:10445000F0E0808184608083E0EBF0E08081816027
:104460008083EAE7F0E080818460808380818260DD
:1044700080838081816080838081806880831092C6
:10448000C1000895982F8E3008F09E50977080914B
:10449000E2048295880F880F807C892B80937C00B2
:1044A00080917A00806480937A0080917A0086FD02
:1044B000FCCF2091780040917900942F80E030E08B
:1044C000282B392BC9010895CF93DF93482F50E053
:1044D000CA0186569E4FFC0134914A575E4FFA013D
:1044E0008491882369F190E0880F991FFC01E859B5
:1044F000FE4FA591B491FC01EE58FE4FC591D491A9
:10450000662351F42FB7F8948C91932F90958923BB
:104510008C93888189230BC0623061F42FB7F894A3
:104520008C91932F909589238C938881832B8883FA
:104530002FBF06C09FB7F8948C91832B8C939FBF9D
:10454000DF91CF910895482F50E0CA0182559E4FC8
:10455000FC012491CA0186569E4FFC0194914A5752
:104560005E4FFA013491332309F440C0222351F104
:10457000233071F0243028F42130A1F0223011F5DD
:1045800014C02630B1F02730C1F02430D9F404C073
:10459000809180008F7703C0809180008F7D809311
:1045A000800010C084B58F7702C084B58F7D84BD34
:1045B00009C08091B0008F7703C08091B0008F7DDB
:1045C0008093B000E32FF0E0EE0FFF1FEE58FE4F98
:1045D000A591B4912FB7F894662321F48C9190950E
:1045E000892302C08C91892B8C932FBF0895682F4B
:1045F00070E0CB0182559E4FFC012491CB01865681
:104600009E4FFC0144916A577E4FFB019491992380
:1046100019F420E030E03CC0222351F1233071F046
:10462000243028F42130A1F0223011F514C02630B6
:10463000B1F02730C1F02430D9F404C0809180005B
:104640008F7703C0809180008F7D8093800010C0A1
:1046500084B58F7702C084B58F7D84BD09C08091F9
:10466000B0008F7703C08091B0008F7D8093B00041
:10467000892F90E0880F991F84589E4FFC01A591C7
:10468000B4918C9120E030E0842311F021E030E0FF
:10469000C901089508951F920F920FB60F92112429
:1046A0002F933F934F938F939F93EF93FF9380911B
:1046B000C00082FD1DC04091C6002091900630913F
:1046C00091062F5F3F4F2F7330708091920690912B
:1046D00093062817390771F0E0919006F091910642
:1046E000E05BF94F4083309391062093900602C01F
:1046F0008091C600FF91EF919F918F914F913F91D3
:104700002F910F900FBE0F901F901895E091E40627
:10471000F091E506E05CFF4F81919191208131811C
:10472000805C9F4F821B930B60E470E00E94522BD1
:10473000892B11F00E944A2308951F920F920FB601
:104740000F9211242F933F938F939F93EF93FF9397
:104750002091D4063091D5068091D6069091D70647
:104760002817390731F48091C1008F7D8093C100F3
:1047700014C0E091D606F091D706EC56F94F20818F
:104780008091D6069091D70601968F739070909382
:10479000D7068093D6062093C600FF91EF919F9194
:1047A0008F913F912F910F900FBE0F901F901895F2
:1047B000AF92BF92DF92EF92FF920F931F93CF932E
:1047C000DF93EC017A018B01DD24403081EE580744
:1047D00080E0680780E0780711F0DD24D39491E051
:1047E000A92EB12CEC89FD89DD2069F0C50108A056
:1047F00002C0880F991F0A94E2F7808360E079E095
:104800008DE390E005C0108260E874E88EE190E0EE
:10481000A80197010E94652B215030404040504034
:10482000569547953795279580E12030380720F039
:10483000DD2011F0DD24D6CFE889F9893083EA89BB
:10484000FB89208319A2EE89FF89408121E030E0B5
:10485000C9010C8C02C0880F991F0A94E2F7482BFB
:104860004083EE89FF894081C9010D8C02C0880F09
:10487000991F0A94E2F7482B4083EE89FF89408113
:10488000C9010E8C02C0880F991F0A94E2F7482BC9
:104890004083EE89FF8980810F8C02C0220F331F75
:1048A0000A94E2F7209528232083DF91CF911F916E
:1048B0000F91FF90EF90DF90BF90AF900895DC01D3
:1048C0001C96ED91FC911D97E05CFF4F81919191B9
:1048D00020813181805C9F4F821B930B60E470E0EC
:1048E0000E94522B0895DC011C96ED91FC911D97BE
:1048F000E05CFF4F20813181E054F040DF01AE5B8E
:10490000BF4F8D919C9111972817390719F42FEFFC
:104910003FEF07C08D919C91E80FF91F8081282FF0
:1049200030E0C9010895DC011C96ED91FC911D97C2
:10493000E05CFF4F20813181E054F040DF01AE5B4D
:10494000BF4F8D919C9111972817390719F42FEFBC
:104950003FEF10C08D919C911197E80FF91F2081B6
:104960008D919C91119701968F73907011969C93E5
:104970008E9330E0C9010895DC0191968C91919756
:10498000882339F05496ED91FC915597808186FFEC
:10499000F9CF91961C920895CF93DF93EC01EE85A9
:1049A000FF85E05CFF4F20813181E054F0402F5FB4
:1049B0003F4F2F733070DF01AE5BBF4F8D919C91E5
:1049C000119728173907D1F3E05CFF4F808191815F
:1049D000E054F040E80FF91F6083EE85FF85E05C4E
:1049E000FF4F31832083EE89FF89208181E090E0B1
:1049F0000F8C02C0880F991F0A94E2F7282B20839E
:104A000081E089A3EC89FD8980818064808381E0D5
:104A100090E0DF91CF9108951092DB061092DA06B4
:104A200088EE93E0A0E0B0E08093DC069093DD0692
:104A3000A093DE06B093DF068DEF94E09093D90645
:104A40008093D80680E596E09093E5068093E4068F
:104A500084E996E09093E7068093E60685EC90E083
:104A60009093E9068093E80684EC90E09093EB063F
:104A70008093EA0680EC90E09093ED068093EC063C
:104A800081EC90E09093EF068093EE0682EC90E04C
:104A90009093F1068093F00686EC90E09093F306F5
:104AA0008093F20684E08093F40683E08093F50619
:104AB00087E08093F60685E08093F70681E0809397
:104AC000F80608950895CF93DF930E9407220E946D
:104AD00062250E948904C6E8D3E20E9484042097DC
:104AE000E1F30E948623F9CFCF92DF92EF92FF92FB
:104AF0000F931F93CF93DF937C016B018A01C0E07A
:104B0000D0E00FC0D6016D916D01D701ED91FC9100
:104B10000190F081E02DC7010995C80FD91F015000
:104B200010400115110571F7CE01DF91CF911F9152
:104B30000F91FF90EF90DF90CF900895CF93DF9388
:104B4000FB01EC01A881B9816081718144815581AB
:104B50001296ED91FC9113970995DF91CF910895ED
:104B6000EF92FF920F931F938C01DC01ED91FC916A
:104B70000190F081E02D6DE009957C01D801ED9167
:104B8000FC910190F081E02DC8016AE009959C013B
:104B90002E0D3F1DC9011F910F91FF90EF900895B9
:104BA000EF92FF920F931F937C010E949E258C0130
:104BB000C7010E94B0259C01200F311FC9011F9120
:104BC0000F91FF90EF900895CF93DF93EC01611563
:104BD000710519F420E030E00FC0DB010D900020DA
:104BE000E9F71197A61BB70BE881F9810280F381E1
:104BF000E02DAD0109959C01C901DF91CF91089588
:104C00000E94E4250895EF92FF920F931F937C0179
:104C10000E94E4258C01C7010E94B025080F191FCE
:104C2000C8011F910F91FF90EF9008950F931F936C
:104C3000CF93DF93EC018B016F5F7F4F8881998168
:104C40000E94EB28009711F480E005C099838883C7
:104C50001B830A8381E0DF91CF911F910F9108950B
:104C6000CF93DF93EC0188819981892B29F08A8188
:104C70009B818617970760F4CE010E941626882331
:104C800041F08C819D81892B19F4E881F981108292
:104C900081E0DF91CF910895EF92FF920F931F93E0
:104CA000CF93DF93EC017B016C817D81E114F104F2
:104CB000C1F04115510599F08A01060F171FB8017F
:104CC0000E943026882369F0888199812C813D815A
:104CD000820F931FB7010E94B4011D830C8381E0F2
:104CE00001C080E0DF91CF911F910F91FF90EF9075
:104CF0000895CF93DF93EC0188819981009711F09B
:104D00000E945328198218821D821C821B821A82DB
:104D1000DF91CF9108950F931F93182F092F6115DD
:104D2000710561F0DB010D900020E9F71197A61BDA
:104D3000B70BAD010E944C26882321F4812F902FC0
:104D40000E947926812F902F1F910F9108950F9324
:104D50001F93182F092FFB016081718144815581B8
:104D60000E944C26882321F4812F902F0E947926BF
:104D7000812F902F1F910F910895EF92FF920F9323
:104D80001F93CF93DF93EC017B018A01BA010E944C
:104D90003026882321F4CE010E94792607C01D8386
:104DA0000C8388819981B7010E94B401CE01DF9103
:104DB000CF911F910F91FF90EF900895CF93DF93C4
:104DC000EC01198218821B821A821D821C826115D5
:104DD000710551F0DB010D900020E9F71197A61B3A
:104DE000B70BAD010E94BD26DF91CF910895CF93FF
:104DF000DF93EC01198218821B821A821D821C82A9
:104E00006115710551F0DB010D900020E9F7119754
:104E1000A61BB70BAD010E94BD26DF91CF9108956F
:104E20000F931F93182F092F6115710559F0DB019E
:104E30000D900020E9F71197A61BB70BAD010E945A
:104E4000BD2602C00E947926812F902F1F910F91BD
:104E50000895EF92FF920F931F93DF93CF93CDB7F7
:104E6000DEB7A1970FB6F894DEBF0FBECDBF7C01B1
:104E7000CB01BA01F70111821082138212821582CE
:104E80001482422F4E5F8E010F5F1F4F0E948A01D6
:104E9000BC01C7010E941027A1960FB6F894DEBF8F
:104EA0000FBECDBFCF91DF911F910F91FF90EF907B
:104EB0000895EF92FF920F931F93DF93CF93CDB797
:104EC000DEB762970FB6F894DEBF0FBECDBF8C0180
:104ED000CB01F80111821082138212821582148292
:104EE0007E010894E11CF11CB70150E00E94BB0157
:104EF000C801B7010E94102762960FB6F894DEBF72
:104F00000FBECDBFCF91DF911F910F91FF90EF901A
:104F10000895CF93DF93EC01FB018617970761F0AB
:104F2000608171816115710529F0448155810E946C
:104F3000BD2602C00E947926CE01DF91CF9108954F
:104F4000FC011182108213821282158214820E9447
:104F500089270895FC01808191810E94532808953A
:104F6000FC01808191810E94532808950F931F9323
:104F7000CF93DF93BC018230910510F462E070E0C2
:104F8000E091FC06F091FD06A0E0B0E040E050E0CA
:104F900024C08081918186179707D0F086179707E4
:104FA00071F482819381109729F013969C938E93CC
:104FB00012972CC09093FD068093FC0627C04115E4
:104FC000510519F08417950718F4EF018D01AC0114
:104FD000DF01828193819C01F9013097D1F641155F
:104FE0005105F9F0CA01861B970B8430910580F4B6
:104FF0008A819B810115110521F0F8019383828339
:1050000004C09093FD068093FC06FE01329645C0D5
:10501000FE01E80FF91F61937193029799838883CA
:105020003CC08091FA069091FB06892B41F4809157
:10503000E5049091E6049093FB068093FA06409174
:10504000E7045091E8044115510541F44DB75EB7AE
:105050008091E3049091E404481B590B2091FA06D7
:105060003091FB0624173507B0F4CA01821B930B5D
:105070008617970780F0AB014E5F5F4F8417950747
:1050800050F0420F531F5093FB064093FA06F9016C
:105090006193719302C0E0E0F0E0CF01DF91CF9126
:1050A0001F910F910895CF93DF939C01009709F40E
:1050B0008FC0EC0122971B821A826091FC067091CE
:1050C000FD066115710581F488819981820F931F16
:1050D0002091FA063091FB062817390739F5D0934D
:1050E000FB06C093FA0674C0DB0140E050E0AC1749
:1050F000BD0708F1BB83AA83FE0121913191E20F24
:10510000F31FAE17BF0779F48D919C911197280F6B
:10511000391F2E5F3F4F3983288312968D919C91C2
:1051200013979B838A834115510571F4D093FD0633
:10513000C093FC064DC012968D919C911397AD01C2
:10514000009711F0DC01D3CFDA011396DC93CE93F4
:105150001297FA0121913191E20FF31FCE17DF0769
:1051600069F488819981280F391F2E5F3F4FFA011A
:10517000318320838A819B8193838283E0E0F0E006
:10518000DB0112968D919C911397009719F0BC0149
:10519000FD01F6CFAB014E5F5F4FDB018D919C911E
:1051A000840F951F2091FA063091FB0628173907C6
:1051B00079F4309729F41092FD061092FC0602C093
:1051C00013821282425050405093FB064093FA06DD
:1051D000DF91CF9108956F927F928F929F92AF92BD
:1051E000BF92CF92DF92EF92FF920F931F93CF93D4
:1051F000DF938C01009729F4CB010E94B6278C0124
:10520000BBC08EEFE82E8FEFF82EE00EF11E4801A6
:10521000860E971E8E149F0408F4ACC0D7014D91E2
:105220005C91119746175707B8F04530510508F4BF
:10523000A3C0CA0104978617970708F49DC042507F
:105240005040461B570BF401419351936D937C934F
:10525000CF010E94532890C05B01A41AB50A3801FF
:10526000640E751EA091FC06B091FD06CC24DD24D1
:10527000E0E0F0E047C0A615B705A9F5CD91DC91B7
:105280001197CE0102968A159B0568F1CE018A1905
:105290009B09029612962C91129713963C910597B2
:1052A00058F0F40122833383CA19DB09D183C08308
:1052B000D7016D937C9309C04E5F5F4F4C0F5D1F0C
:1052C000F70151834083C901FC01C114D10431F0BD
:1052D000D6011396FC93EE9312974EC0F093FD0601
:1052E000E093FC0649C08D919C911197E817F9074E
:1052F00008F4FC016D0112968C91129713969C9103
:105300009C01D901109709F0B6CF8091FA069091CF
:10531000FB0686159705E9F4E617F707D0F4209108
:10532000E7043091E8042115310541F42DB73EB76B
:105330008091E3049091E404281B390B82169306B4
:10534000C8F49092FB068092FA06F701718360839D
:1053500013C0CB010E94B627EC01009759F0D7018A
:105360004D915C91B8010E94AB01C8010E94532885
:105370008E0102C000E010E0C801DF91CF911F91C3
:105380000F91FF90EF90DF90CF90BF90AF909F90E4
:105390008F907F906F9008955058BB27AA270ED00A
:1053A000DCC0CDD030F0D2D020F031F49F3F11F4EA
:1053B0001EF4C2C00EF4E095E7FBB8C0E92FDED0C2
:1053C00080F3BA17620773078407950718F071F422
:1053D0009EF5F6C00EF4E0950B2EBA2FA02D0B0112
:1053E000B90190010C01CA01A0011124FF27591B2A
:1053F00099F0593F50F4503E68F11A16F040A22F30
:10540000232F342F4427585FF3CF469537952795A0
:10541000A795F0405395C9F77EF41F16BA0B620B9F
:10542000730B840BBAF09150A1F0FF0FBB1F661FE6
:10543000771F881FC2F70EC0BA0F621F731F841F29
:1054400048F4879577956795B795F7959E3F08F04F
:10545000B3CF9395880F08F09927EE0F979587950E
:10546000089540D008F481E00895E89409C097FBBE
:105470003EF490958095709561957F4F8F4F9F4F2B
:105480009923A9F0F92F96E9BB279395F69587956F
:1054900077956795B795F111F8CFFAF4BB0F11F432
:1054A00060FF1BC06F5F7F4F8F4F9F4F16C08823D9
:1054B00011F096E911C0772321F09EE8872F762F0F
:1054C00005C0662371F096E8862F70E060E02AF050
:1054D0009A95660F771F881FDAF7880F969587953C
:1054E00097F90895990F0008550FAA0BE0E8FEEF11
:1054F00016161706E807F907C0F012161306E40798
:10550000F50798F0621B730B840B950B39F40A2690
:1055100061F0232B242B252B21F408950A2609F46E
:10552000A140A6958FEF811D811D089597F99F6772
:1055300080E870E060E008959FEF80EC089500241B
:105540000A941616170618060906089500240A94E8
:1055500012161306140605060895092E0394000C6E
:1055600011F4882352F0BB0F40F4BF2B11F460FFFD
:1055700004C06F5F7F4F8F4F9F4F089557FD905826
:10558000440F551F59F05F3F71F04795880F97FB07
:10559000991F61F09F3F79F08795089512161306C1
:1055A0001406551FF2CF4695F1DF08C016161706F0
:1055B0001806991FF1CF8695710561050894089525
:1055C000E894BB2766277727CB0197F908958ADFF0
:1055D00008F48FEF08950BD0C0CFB1DF28F0B6DF0D
:1055E00018F0952309F0A2CFA7CF1124EACFC6DF88
:1055F000A0F3959FD1F3950F50E0551F629FF001E6
:10560000729FBB27F00DB11D639FAA27F00DB11D3E
:10561000AA1F649F6627B00DA11D661F829F2227C7
:10562000B00DA11D621F739FB00DA11D621F839F4E
:10563000A00D611D221F749F3327A00D611D231F24
:10564000849F600D211D822F762F6A2F11249F5772
:1056500050408AF0E1F088234AF0EE0FFF1FBB1F95
:10566000661F771F881F91505040A9F79E3F510534
:1056700070F05CCFA6CF5F3FECF3983EDCF38695ED
:1056800077956795B795F795E7959F5FC1F7FE2BDF
:10569000880F911D9695879597F9089523DF880BBC
:1056A000990B089597FB092E07260AD077FD04D0A1
:1056B0002ED006D000201AF4709561957F4F089582
:1056C000F6F7909581959F4F0895A1E21A2EAA1B97
:1056D000BB1BFD010DC0AA1FBB1FEE1FFF1FA217A2
:1056E000B307E407F50720F0A21BB30BE40BF50B9F
:1056F000661F771F881F991F1A9469F76095709528
:10570000809590959B01AC01BD01CF010895AA1B26
:10571000BB1B51E107C0AA1FBB1FA617B70710F09C
:10572000A61BB70B881F991F5A95A9F780959095CE
:10573000BC01CD010895EE0FFF1F0590F491E02DFF
:1057400009942F923F924F925F926F927F928F9225
:105750009F92AF92BF92CF92DF92EF92FF920F9300
:105760001F93CF93DF93CDB7DEB7CA1BDB0B0FB60A
:10577000F894DEBF0FBECDBF09942A8839884888C7
:105780005F846E847D848C849B84AA84B984C8845D
:10579000DF80EE80FD800C811B81AA81B981CE0F54
:1057A000D11D0FB6F894DEBF0FBECDBFED01089539
:0457B000F894FFCF9B
:1057B4002020456C656374726F42697272610020C7
:1057C4002076302E3220323031353037004E0053BF
:1057D400005F0020204775617264616E646F2E2E35
:1057E4002E20200073746570536574496E74200014
:1057F40020202020477561726461723F20202020A0
:10580400004E4F202020202020202020205349001B
:10581400484C542000486F742020002A004D542026
:105824000050756D7020005F5F005F5F5F00434F45
:105834004E542053202F205F5F5F206D696E0062FD
:10584400726577526563697263756C6174696F6EB2
:1058540054696D65200053657474696E67207361C3
:1058640076652073746570536574496E7420666F31
:10587400722062726577526563697263756C6174D4
:10588400696F6E54696D6520005F5F5F2E5F007302
:10589400746570536574466C6F617420005365744D
:1058A40074696E67207361766520737465705365DF
:1058B40074466C6F6174200053657474696E67205C
:1058C400736176652073746570536574496E7420D2
:1058D40000436F6E66696775726120656C20746938
:1058E400656D706F20792074656D70657261747573
:1058F40072612064656C20657363616C6F6E200057
:10590400202D206D61785F6974656D733A20005FA6
:105914005F5F2E5F43202F205F5F5F206D696E0005
:10592400454550524F4D5F7772697465416E797485
:1059340068696E6720627265774D61736853746538
:10594400702028737562706F696E74657229200007
:10595400456E7472616E646F2061206D6F646F2098
:105964006D6163657261646F00456E7472616E642B
:105974006F2061206D6F646F207265636972637557
:105984006C61646F00456E7472616E646F20612097
:105994006D6F646F206C617661646F00456E747224
:1059A400616E646F2061206D6F646F20686572762C
:1059B4006F7200456E7472616E646F2061206D6F4A
:1059C400646F2077686972706F6F6C00456E7472D3
:1059D400616E646F2061206D6F646F20656E667206
:1059E4006961646F00456E7472616E646F2061203A
:1059F4006D6F646F206D6F6E69746F7200456E74A5
:105A040072616E646F2061206D6F646F20627265D5
:105A14007700456E7472616E646F2061206D6F64EF
:105A24006F206665726D656E7461646F7200456E99
:105A34007472616E646F2061206D6F646F20636F98
:105A44006E66696775726163696F6E004D616E752C
:105A5400616C2F4D6F6E69746F7200436F6363697D
:105A64006F6E004665726D656E7461646F7200439B
:105A74006F6E66696775726163696F6E004D6F6EF4
:105A840069746F720043616C656E74617200426F79
:105A94006D62656172004D6163657261646F00508F
:105AA40072696D657220457363616C6F6E00536536
:105AB40067756E646F20457363616C6F6E00546527
:105AC400726365726F20457363616C6F6E0043751A
:105AD4006172746F20457363616C6F6E00517569F8
